:100000000C94BD000C9445080C941E080C94F70742
:100010000C94D0070C94E5000C94E5000C94A9070F
:100020000C94E5000C94E5000C94BE040C942D0592
:100030000C94E5000C94E5000C94E5000C94E500AC
:100040000C94E5000C94E5000C94E5000C94E5009C
:100050000C94E5000C94E5000C94E5000C945F070B
:100060000C94E5000C94E5000C94E5000C94E5007C
:100070000C94E5000C94E5000C94E5000C94E5006C
:100080000C94E5000C94E5000C94E5000C94E5005C
:100090000C94E5000C94E5000C946C080C94E500BD
:1000A0000C94E5000C94E5000C94E50000000000C1
:1000B000250028002B002E00310000000000240045
:1000C00027002A002D003000040404040403040562
:1000D00002020202040302020202060606060606E5
:1000E00004040202020404040802011040804010CB
:1000F000204080408008020401804020100201104E
:10010000801020404020080B000202020000090479
:100110000000010202000005240010010524010175
:1001200001042402060524060001070581031000CE
:100130004009040100020A00000007050202400015
:1001400000070583024000000403090412010002B5
:10015000EF02014041233780000101020301417297
:100160006475696E6F204C4C430041726475696E12
:100170006F204D6963726F00EB0811241FBECFEF33
:10018000DAE0DEBFCDBF11E0A0E0B1E0E4E0F4E1F1
:1001900002C005900D92A033B107D9F722E0A0E389
:1001A000B1E001C01D92A538B207E1F710E0CDEB38
:1001B000D0E004C02197FE010E94FA09CC3BD10790
:1001C000C9F70E9415090C94000A0C940000E82F4E
:1001D000F0E0EE0FFF1FE35FFE4F7183608382301C
:1001E000D9F028F4882341F0813071F008958330EC
:1001F000D9F0843009F10895809169008C7F816085
:1002000080936900E89A089580916900837F8460F3
:1002100080936900E99A0895809169008F7C8061DC
:1002200080936900EA9A0895809169008F738064D1
:1002300080936900EB9A089580916A008F7C8061B9
:1002400080936A00EE9A0895FC018091020288234F
:1002500011F13FB7F89482E08093E9002091F20019
:10026000822F90E01816190614F481E090E088239C
:1002700039F0289A44E6409301024091F10040830E
:10028000222339F02091F200211103C02BE62093A4
:10029000E8003FBF08958FEF9FEF08952FB7F894C0
:1002A00083E08093E9009091E800892F807295FFA8
:1002B00004C09091F20080E4891B2FBF08958091C3
:1002C000F90181110DC082E08093F50184E08093F3
:1002D000F6011092F8011092F70181E08093F90184
:1002E00085EF91E00895CF93DF931F92CDB7DEB7EE
:1002F0006983DC01ED91FC910280F381E02D41E006
:1003000050E0BE016F5F7F4F09950F90DF91CF9155
:10031000089583E08093E9008091F200882319F02A
:100320008AE38093E80008950E944E0190E00895CA
:10033000CF93DF931F92CDB7DEB7FC0184859585FF
:1003400097FD08C02FEF3FEF358724870F90DF918F
:10035000CF910895CE0101960E942401019719F4CE
:10036000898190E0F3CF8FEF9FEFF0CF0F931F9332
:10037000CF93DF931F92CDB7DEB78C01FC0184854C
:10038000958597FF0BC0CE0101960E94240101972D
:1003900071F4898190E0F80195878487F80184855C
:1003A00095850F90DF91CF911F910F9108958FEF59
:1003B0009FEFF1CFFC018485958597FD0BC09FB71A
:1003C000F89482E08093E9008091F2009FBF90E072
:1003D000019608959FB7F89482E08093E900809198
:1003E000F2009FBF90E008954091EF015091F0011D
:1003F0002091ED013091EE0142175307B4F4909132
:10040000E8009570E1F39091E80092FD19C08093A7
:10041000F1008091EF019091F00101968F7399277F
:10042000892B19F48EEF8093E8008091EF01909171
:10043000F00101969093F0018093EF0181E008951F
:1004400080E00895EF92FF920F931F93CF93DF9375
:10045000F82E192FE62E042F81E0860F880F0E94B8
:10046000F40183E00E94F401CF2DD12FEC0EFD2E7C
:10047000F11CCE15DF05B9F007FF13C0FE01849112
:100480000E94F401182F80E00E94F401812321963C
:100490008111EFCFDF91CF911F910F91FF90EF90DE
:1004A00008958881EDCF81E0F5CFDF92EF92FF9242
:1004B0000F931F93CF93DF93D82E8A01EB017B011B
:1004C000E40EF51ECE15DF0559F0D7FE12C0FE0171
:1004D00084910E94F40121968111F4CF0FEF1FEF58
:1004E000C801DF91CF911F910F91FF90EF90DF90A6
:1004F00008958881EECF0F931F93CF93DF931F92C0
:10050000CDB7DEB782E0898342E450E066E071E077
:1005100080E80E9455020E945F01DC0112960D9155
:100520001C910115110589F0D801ED91FC91028013
:10053000F381E02DBE016F5F7F4FC801099597FDE4
:1005400004C0F80100851185ECCF89810F90DF91FF
:10055000CF911F910F910895615030F02091F100DB
:10056000FC0120830196F8CF289A84E6809301024B
:100570000895CF93DF9390E0FC01E951FF4F249160
:1005800088539F4FFC0184918823D1F090E0880F1D
:10059000991FFC01E654FF4FA591B491FC01E4556D
:1005A000FF4FC591D491623071F49FB7F8943C919C
:1005B000822F809583238C93E8812E2B28839FBFE5
:1005C000DF91CF9108958FB7F894EC912E2B2C9357
:1005D0008FBFF6CF3FB7F8948091E9019091EA017F
:1005E000A091EB01B091EC0126B5A89B05C02F3F6F
:1005F00019F00196A11DB11D3FBFBA2FA92F982F49
:100600008827BC01CD01620F711D811D911D42E043
:10061000660F771F881F991F4A95D1F70895CF92CB
:10062000DF92EF92FF920E94EA026B017C010E942E
:10063000EA026C197D098E099F09683E73408105A5
:100640009105A8F3FF90EF90DF90CF9008958F92DF
:100650009F92AF92BF92CF92DF92EF92FF920F9351
:100660001F93CF93DF936C017B018A0180910C0172
:10067000882309F458C080910202882309F453C0EA
:100680008091F40180FF05C08091E000826080933A
:10069000E000E801B12C8AEFA82E93E0892E2AE32E
:1006A000922E209711F4BB20B9F10E944E018111C6
:1006B00006C0AA94AA20B9F10E940F03F2CF8C17AA
:1006C0001D0611F00CF08C2F9FB7F8948092E90072
:1006D0002091E80025FD02C09FBFE3CF282F30E026
:1006E000C21BD30BF701815020F041914093F100E0
:1006F000FACFE20EF31EBB2021F09092E800B12C5D
:10070000EBCF8091E80085FDE7CF9092E800BB2415
:10071000B394209709F3F3CF5D9A84E68093F301B5
:10072000101611063CF081E090E0F601938382837D
:1007300010E000E0C801DF91CF911F910F91FF9071
:10074000EF90DF90CF90BF90AF909F908F900895E3
:100750000895CF93DF93CDB7DEB728970FB6F894FF
:10076000DEBF0FBECDBF0E94EA0269837A838B830E
:100770009C8389819A81AB81BC8140917D0250919B
:100780007E0260917F0270918002841B950BA60B04
:10079000B70B8D839E83AF83B8878D819E81AF8198
:1007A000B8858D3B9240A105B10508F444C08D8108
:1007B0009E81AF81B88588399840A105B105D8F5EB
:1007C0008D819E81AF81B88583359340A105B105A8
:1007D00048F08D819E81AF81B885843D9340A1050D
:1007E000B105B0F180917C02883028F58D819E8121
:1007F000AF81B885E0917C02F0E0EE0FFF1FED5A6B
:10080000FD4F928F818F80917C028F5F80937C025D
:100810002FB7F8948091E5019091E601A091E7014E
:10082000B091E8012FBF8093810290938202A09340
:100830008302B093840289819A81AB81BC818093C9
:100840007D0290937E02A0937F02B093800202C04B
:1008500010927C0228960FB6F894DEBF0FBECDBF73
:10086000DF91CF910895CF93DF93CDB7DEB728976F
:100870000FB6F894DEBF0FBECDBF0E94EA026983B7
:100880007A838B839C8389819A81AB81BC814091DF
:100890006402509165026091660270916702841B48
:1008A000950BA60BB70B8D839E83AF83B8878D8185
:1008B0009E81AF81B8858D3B9240A105B10508F4BA
:1008C00048C08D819E81AF81B88588399840A10547
:1008D000B10508F03EC08D819E81AF81B88583351A
:1008E0009340A105B10548F08D819E81AF81B88507
:1008F000843D9340A105B10550F180916302883099
:1009000040F58D819E81AF81B885E0916302F0E072
:10091000EE0FFF1FED5AFD4F91838083809163029C
:100920008F5F809363022FB7F8948091E5019091D7
:10093000E601A091E701B091E8012FBF8093680222
:1009400090936902A0936A02B0936B0202C0109266
:10095000630289819A81AB81BC8180936402909308
:100960006502A0936602B093670228960FB6F894CA
:10097000DEBF0FBECDBFDF91CF9108951F920F92C2
:100980000FB60F9211248F939F938091E100909165
:10099000E100937F9093E10083FF0FC01092E90084
:1009A00091E09093EB001092EC0092E39093ED00B5
:1009B0001092020298E09093F00082FF22C093E030
:1009C0009093E9009091F200992319F09AE39093A3
:1009D000E8009091F301992341F09091F301915037
:1009E0009093F301911101C05D98909101029923B8
:1009F00041F090910102915090930102911101C038
:100A0000289884FF18C08091E2008E7E81608093D8
:100A1000E2008091E1008F7E8093E1008091F401FB
:100A20008E7E80618093F4019F918F910F900FBE15
:100A30000F901F90189580FFF7CF8091E2008E7E77
:100A400080618093E2008091E1008E7E8093E100DE
:100A50008091F4018E7E8160E5CF1F920F920FB6D8
:100A60000F921124CF92DF92EF92FF920F931F9378
:100A70002F933F934F935F936F937F938F939F93A6
:100A8000AF93BF93EF93FF93CF93DF93CDB7DEB7D1
:100A90006C97DEBFCDBF1092E9008091E80083FF24
:100AA00025C068E0CE0145960E94AC0282EF80939B
:100AB000E8008D8987FF39C09091E80090FFFCCF56
:100AC000982F907609F034C19E894F89588D2F89CF
:100AD000F88C911131C0803861F58091F2018093DA
:100AE000F1001092F1008EEF8093E8006C960FB643
:100AF000F894DEBF0FBECDBFDF91CF91FF91EF9194
:100B0000BF91AF919F918F917F916F915F914F9125
:100B10003F912F911F910F91FF90EF90DF90CF9019
:100B20000F900FBE0F901F9018959EEF9093E800C6
:100B3000C7CF1092F100D5CF913059F48111D3CFA6
:100B40004130510581F68091F2018D7F8093F20151
:100B5000CACF933049F48111C6CF4130510519F6FF
:100B60008091F2018260F2CF953041F48091E800EB
:100B700080FFFCCF20682093E300B5CF963009F0CA
:100B8000A9C00B8D1C8D22E01092E9001092F0019B
:100B90001092EF01F2122EC01092EE011092ED01B0
:100BA0000E947B021F8299E09983FA8291E09E83E2
:100BB00090EA98879AEF99872091EF013091F001A0
:100BC000275F3F4F3C832B838D831092E900109267
:100BD000F0011092EF011093EE010093ED0149E056
:100BE00050E0BE016F5F7F4F80E00E9455020E947F
:100BF0007B0279CF1093EE010093ED010E945F011B
:100C0000DC0112960D911C910115110509F451C1D9
:100C1000D801ED91FC910480F581E02DBE016B5E61
:100C20007F4FC8010995009709F03EC1F801008582
:100C30001185EACFF3E0FF120EC08F89882309F4F3
:100C400040C0823061F440E86DE08AE691E00E94A5
:100C50002202811148CF81E28093EB0047CF81309F
:100C600029F440E86BE08EE591E0F1CF833099F70D
:100C70000E945F01DC011296ED90FC908E010F5FE7
:100C80001F4F6801E114F10479F0D701ED91FC9157
:100C90000680F781E02DB801C7010995080F111DE5
:100CA000F701E084F184EECFD8011C92F6010190A7
:100CB0000020E9F73197BF016C197D0940E0C601BA
:100CC000C6CF68E471E0FB01449150E080E80E94E7
:100CD000550209CF973009F4BECF983021F481E056
:100CE0008093F10000CF993009F0FDCE837009F0B8
:100CF000B2CFE8E1F1E081E031E096E321912223F7
:100D000071F08093E9003093EB00DF0111972C9193
:100D10002093EC009093ED008F5F873079F78EE79A
:100D20008093EA001092EA008F8980930202DBCE62
:100D30008B8D9C8D1092E9001092F0011092EF01C2
:100D40009093EE018093ED01898D811192C08E897F
:100D50009D89913A49F4813209F07DCF47E050E016
:100D600065E071E080E0B3CF913209F074CF833257
:100D700069F48F89988DB0E0A0E080930101909391
:100D80000201A0930301B0930401ADCE803269F457
:100D90008091E80082FFFCCF67E085E091E00E944F
:100DA000AC028BEF8093E8009ECE823209F09BCE9E
:100DB0008F8980930C01EEEFFFE7859194918B3F33
:100DC0009C4D51F1E0E0F8E0809105019091060121
:100DD000A0910701B0910801803B9440A105B105A5
:100DE000F1F480910C0180FD1AC0EE3F8AE0F80713
:100DF00089F587E797E791838083809160008093EE
:100E0000F10188E19BE00FB6F894A895809360000B
:100E10000FBE9093600067CEEEEFFAE0D5CF8081F1
:100E200091818737974709F05ECEA8958091600041
:100E30008861809360008091F10180936000EE3FB3
:100E40002AE0F20789F08091FE0A9091FF0A9183CF
:100E5000808349CE808191818737980751F29093A2
:100E6000FF0A8093FE0AC5CF1092FF0A1092FE0A75
:100E70003ACE0E945F01DC0112960D911C91011582
:100E8000110509F4E8CED801ED91FC910190F081B3
:100E9000E02DBE016B5E7F4FC8010995811123CE05
:100EA000F80100851185EBCF181619060CF41BCE3E
:100EB000D2CEF1E0FF12BECE6CE471E004CF1F92FF
:100EC0000F920FB60F9211242F933F938F939F93FE
:100ED000AF93BF938091E5019091E601A091E70166
:100EE000B091E8013091E40123E0230F2D3758F54C
:100EF0000196A11DB11D2093E4018093E50190931B
:100F0000E601A093E701B093E8018091E901909197
:100F1000EA01A091EB01B091EC010196A11DB11D78
:100F20008093E9019093EA01A093EB01B093EC0167
:100F3000BF91AF919F918F913F912F910F900FBED5
:100F40000F901F90189526E8230F0296A11DB11D42
:100F5000D2CF1F920F920FB60F9211242F933F936F
:100F60004F935F936F937F938F939F93AF93BF93B1
:100F7000EF93FF93E0911501F09116010995FF9110
:100F8000EF91BF91AF919F918F917F916F915F9101
:100F90004F913F912F910F900FBE0F901F9018957A
:100FA0001F920F920FB60F9211242F933F934F93DE
:100FB0005F936F937F938F939F93AF93BF93EF93C1
:100FC000FF93E0911301F09114010995FF91EF91C6
:100FD000BF91AF919F918F917F916F915F914F9151
:100FE0003F912F910F900FBE0F901F9018951F9259
:100FF0000F920FB60F9211242F933F934F935F934D
:101000006F937F938F939F93AF93BF93EF93FF93D0
:10101000E0911101F09112010995FF91EF91BF91BB
:10102000AF919F918F917F916F915F914F913F9180
:101030002F910F900FBE0F901F9018951F920F9237
:101040000FB60F9211242F933F934F935F936F939B
:101050007F938F939F93AF93BF93EF93FF93E09111
:101060000F01F09110010995FF91EF91BF91AF91A0
:101070009F918F917F916F915F914F913F912F91B0
:101080000F900FBE0F901F9018951F920F920FB6E2
:101090000F9211242F933F934F935F936F937F93FE
:1010A0008F939F93AF93BF93EF93FF93E0910D01C5
:1010B000F0910E010995FF91EF91BF91AF919F9132
:1010C0008F917F916F915F914F913F912F910F90F1
:1010D0000FBE0F901F9018951F920F920FB60F9290
:1010E00011242F933F934F936F937F938F939F93ED
:1010F000AF93BF93EF93FF93809100018F5F809335
:101100000001811138C0E0E3F1E0478185814111A0
:1011100003C090859923E9F090E03681232F30E0D9
:10112000BC01621B730B161617064CF4442389F09E
:10113000240F311D2817390764F4C9010AC0672B31
:1011400041F04085442329F0241B3109821793077D
:10115000A4F386838681882349F09181A281B3819B
:101160008481911131C09C91892B8C93399681E0B7
:10117000E43EF80751F6E0E3F1E0808187FD0FC01F
:1011800080910001968198130AC09181A281B38158
:10119000848191111DC09C91809589238C933996EF
:1011A00081E0E43EF80749F7FF91EF91BF91AF91DD
:1011B0009F918F917F916F914F913F912F910F90C0
:1011C0000FBE0F901F9018959C9180958923CDCFCD
:1011D0009C91892BE3CFE3E0F2E01382128288EE48
:1011E00093E0A0E0B0E084839583A683B78382E296
:1011F00091E0918380838FEF9FEF95878487E3E56C
:10120000F2E088E0808B118A128A138A148A158A88
:10121000168A178A108E81A712A613A614A615A6E1
:1012200016A617A610AA11AA0895789484B582600C
:1012300084BD84B5816084BD85B5826085BD85B57A
:10124000816085BD80916E00816080936E001092F8
:101250008100809181008260809381008091810073
:101260008160809381008091800081608093800004
:1012700080919100826080939100809191008160C3
:101280008093910080919000816080939000809184
:10129000C10084608093C1008091C100826080930E
:1012A000C1008091C10081608093C1008091C30022
:1012B00081608093C3008091C00082608093C000F1
:1012C0008091C20081608093C20080917A00846026
:1012D00080937A0080917A00826080937A00809176
:1012E0007A00816080937A0080917A008068809390
:1012F0007A00109202021092F2011092F401809191
:10130000D70081608093D70080EA8093D80089B5A8
:10131000806189BD89B5826089BD09B400FEFDCFB9
:101320000E940F038091D8008F7C80618093D80049
:101330008091E000807F8093E0008091E1008E7ECC
:101340008093E1008DE08093E200559A209A5D98A9
:10135000289862E082E00E94B90262E083E00E9485
:10136000B90262E087E00E94B90262E086E10E9471
:10137000B90262E087E10E94B90261E082E10E9465
:10138000B90261E08AE00E94B90261E08BE00E944C
:10139000B90261E083E10E94B90261E088E00E9445
:1013A000B90261E089E00E94B90261E085E00E9433
:1013B000B90261E086E00E94B90261E084E10E9426
:1013C000B90261E08CE00E94B90261E085E10E940F
:1013D000B90263E374E081E00E94E70069EA73E028
:1013E00080E00E94E700C0E0D0E02097F1F30E9487
:1013F0000000FBCFEE0FFF1F0590F491E02D099444
:04140000F894FFCF8E
:10140400FFFFFFFFFF00E1000000000000A803A8A9
:1014140003A803A803A80300C18081000000000002
:1014240000007301270394018901DA019801B601D0
:00000001FF
