:100000000C94CD000C94B6090C948F090C946809DB
:100010000C9441090C94F5000C94F5000C941A0909
:100020000C94F5000C94F5000C942F060C949E068D
:100030000C94F5000C94F5000C94F5000C94F5006C
:100040000C94F5000C94F5000C94F5000C94F5005C
:100050000C94F5000C94F5000C94F5000C94D00869
:100060000C94F5000C94F5000C94F5000C94F5003C
:100070000C94F5000C94F5000C94F5000C94F5002C
:100080000C94F5000C94F5000C94F5000C94F5001C
:100090000C94F5000C94F5000C94DD090C94F5001B
:1000A0000C94F5000C94F5000C94F5000000000091
:1000B000240027002A002D00300000000000250049
:1000C00028002B002E00310004040404040304055E
:1000D00002020202040302020202060606060606E5
:1000E00004040202020404040802011040804010CB
:1000F000204080408008020401804020100201104E
:100100008010204040200000000200090F00000382
:100110000401000C000000000000000000000000CE
:100120000000000000080B000202020000090400A9
:100130000001020200000524001001052401010154
:10014000042402060524060001070581031000406F
:1001500009040100020A0000000705020240000035
:10016000070583024000000403090412010002EFA6
:100170000201404123378000010102030141726402
:1001800075696E6F204C4C430041726475696E6FE7
:10019000204D6963726F00005C0A11241FBECFEF0F
:1001A000DAE0DEBFCDBF12E0A0E0B1E0E0E5FDE1C6
:1001B00002C005900D92A038B107D9F724E0A0E85D
:1001C000B2E001C01D92A030B207E1F710E0CDEC23
:1001D000D0E004C02197FE010E94A00ECC3CD107C4
:1001E000C9F70E94860A0C94A60E0C940000E82F12
:1001F000F0E0EE0FFF1FE35FFE4F718360838230FC
:10020000D9F028F4882341F0813071F008958330CB
:10021000D9F0843009F10895809169008C7F816064
:1002200080936900E89A089580916900837F8460D3
:1002300080936900E99A0895809169008F7C8061BC
:1002400080936900EA9A0895809169008F738064B1
:1002500080936900EB9A089580916A008F7C806199
:1002600080936A00EE9A0895FC0180917D038823B3
:1002700011F13FB7F89482E08093E9002091F200F9
:10028000822F90E01816190614F481E090E088237C
:1002900039F0289A44E640937C034091F100408372
:1002A000222339F02091F200211103C02BE6209384
:1002B000E8003FBF08958FEF9FEF08952FB7F894A0
:1002C00083E08093E9009091E800892F807295FF88
:1002D00004C09091F20080E4891B2FBF08958091A3
:1002E000740381110DC082E08093700384E08093D9
:1002F0007103109273031092720381E08093740370
:1003000080E793E0089540913F035091400320918E
:100310003D0330913E0342175307B4F49091E80037
:100320009570E1F39091E80092FD19C08093F1007F
:1003300080913F039091400301968F739927892BF9
:1003400019F48EEF8093E80080913F039091400371
:1003500001969093400380933F0381E0089580E0ED
:100360000895EF92FF920F931F93CF93DF93F82E90
:10037000192FE62E042F81E0860F880F0E9483013B
:1003800083E00E948301CF2DD12FEC0EFD2EF11CB6
:10039000CE15DF05B9F007FF13C0FE0184910E945E
:1003A0008301182F80E00E9483018123219681110F
:1003B000EFCFDF91CF911F910F91FF90EF900895B4
:1003C0008881EDCF81E0F5CFDF92EF92FF920F931E
:1003D0001F93CF93DF93D82E8A01EB017B01E40EAC
:1003E000F51ECE15DF0559F0D7FE12C0FE0184912F
:1003F0000E94830121968111F4CF0FEF1FEFC801F6
:10040000DF91CF911F910F91FF90EF90DF900895B2
:100410008881EECF0F931F93CF93DF931F92CDB7B9
:10042000DEB782E0898342E450E065E271E080E873
:100430000E94E4010E946F01DC0112960D911C9153
:100440000115110589F0D801ED91FC910280F3812D
:10045000E02DBE016F5F7F4FC801099597FD04C075
:10046000F80100851185ECCF89810F90DF91CF9144
:100470001F910F910895615030F02091F100FC011F
:1004800020830196F8CF289A84E680937C03089510
:10049000CF93DF931F92CDB7DEB76983DC01ED9177
:1004A000FC910280F381E02D41E050E0BE016F5FDE
:1004B0007F4F09950F90DF91CF91089583E080934E
:1004C000E9008091F200882319F08AE38093E80024
:1004D00008950E945E0190E00895CF93DF931F92EC
:1004E000CDB7DEB7FC018485958597FD08C02FEF59
:1004F0003FEF358724870F90DF91CF910895CE018C
:1005000001960E943401019719F4898190E0F3CF9C
:100510008FEF9FEFF0CF0F931F93CF93DF931F9237
:10052000CDB7DEB78C01FC018485958597FF0BC0A4
:10053000CE0101960E943401019771F4898190E007
:10054000F80195878487F801848595850F90DF9160
:10055000CF911F910F9108958FEF9FEFF1CFFC0185
:100560008485958597FD0BC09FB7F89482E08093B2
:10057000E9008091F2009FBF90E0019608959FB737
:10058000F89482E08093E9008091F2009FBF90E0B0
:100590000895282F30E0F901EA5FFE4F9491F901A8
:1005A000E951FF4F849128533F4FF90124912223B1
:1005B00009F430C09923E9F091509F30D0F4E92F2D
:1005C000F0E0EB51FD4F0C94A00E13031703F4025F
:1005D0000B030F03F902F902F9021A0320032403A3
:1005E00028032E03F9023203909180009F779093A5
:1005F0008000E22FF0E0EE0FFF1FE654FF4FA591C1
:10060000B4919FB7F894EC91611132C080958E231C
:100610008C939FBF0895909180009F7DE8CF90912B
:100620008000977FE4CF94B59F7794BDE2CF94B5D7
:100630009F7DFBCF909190009F7790939000D9CFB2
:10064000909190009F7DF9CF90919000977FF5CF8A
:100650009091C0009F779093C000CBCF9091C00045
:100660009F7DF9CF9091C200977F9093C200C1CF38
:100670008E2BCECFCF93DF9390E0FC01E951FF4F5B
:10068000249188539F4FFC0184918823D1F090E0FE
:10069000880F991FFC01E455FF4FA591B491FC010F
:1006A000E654FF4FC591D491623071F49FB7F8942E
:1006B0003C91822F809583238C93E8812E2B288375
:1006C0009FBFDF91CF9108958FB7F894EC912E2BB7
:1006D0002C938FBFF6CF3FB7F89480913903909158
:1006E0003A03A0913B03B0913C0326B5A89B05C0FB
:1006F0002F3F19F00196A11DB11D3FBFBA2FA92FA1
:10070000982F8827BC01CD01620F711D811D911D9D
:1007100042E0660F771F881F991F4A95D1F7089509
:10072000CF92DF92EF92FF920E946B036B017C01EC
:100730000E946B036C197D098E099F09683E734006
:1007400081059105A8F3FF90EF90DF90CF90089579
:100750008F929F92AF92BF92CF92DF92EF92FF92D1
:100760000F931F93CF93DF936C017B018A018091DC
:100770000C01882309F458C080917D03882309F473
:1007800053C08091430380FF05C08091E0008260E8
:100790008093E000E801B12C8AEFA82E93E0892E27
:1007A0002AE3922E209711F4BB20B9F10E945E013A
:1007B000811106C0AA94AA20B9F10E949003F2CF39
:1007C0008C171D0611F00CF08C2F9FB7F8948092B7
:1007D000E9002091E80025FD02C09FBFE3CF282F4C
:1007E00030E0C21BD30BF701815020F041914093C0
:1007F000F100FACFE20EF31EBB2021F09092E80048
:10080000B12CEBCF8091E80085FDE7CF9092E80016
:10081000BB24B394209709F3F3CF5D9A84E68093C9
:100820004203101611063CF081E090E0F60193833C
:10083000828310E000E0C801DF91CF911F910F91FA
:10084000FF90EF90DF90CF90BF90AF909F908F90F0
:1008500008952FB7F8946091350370913603809115
:100860003703909138032FBF0895CF93DF93CDB70F
:10087000DEB728970FB6F894DEBF0FBECDBF0E943B
:100880006B0369837A838B839C8389819A81AB8193
:10089000BC814091DF035091E0036091E1037091CE
:1008A000E203841B950BA60BB70B8D839E83AF834E
:1008B000B8878D819E81AF81B8858D3B9240A1051F
:1008C000B105F0F18D819E81AF81B885883998405E
:1008D000A105B105A8F58D819E81AF81B8858335CD
:1008E0009340A105B10548F08D819E81AF81B88507
:1008F000843D9340A105B10508F18091DE03883065
:10090000F8F48D819E81AF81B885E091DE03F0E03F
:10091000EE0FFF1FE253FC4F918380838091DE0333
:100920008F5F8093DE030E9429046093E30370933A
:10093000E4038093E5039093E60302C01092DE0384
:1009400089819A81AB81BC818093DF039093E0031E
:10095000A093E103B093E20328960FB6F894DEBFAC
:100960000FBECDBFDF91CF910895CF93DF93CDB769
:10097000DEB728970FB6F894DEBF0FBECDBF0E943A
:100980006B0369837A838B839C8389819A81AB8192
:10099000BC814091F8035091F9036091FA03709182
:1009A000FB03841B950BA60BB70B8D839E83AF8334
:1009B000B8878D819E81AF81B8858D3B9240A1051E
:1009C000B105D8F18D819E81AF81B8858839984075
:1009D000A105B10590F58D819E81AF81B8858335E4
:1009E0009340A105B10548F08D819E81AF81B88506
:1009F000843D9340A105B10568F18091F7038830EB
:100A0000E0F48D819E81AF81B885E091F703F0E03D
:100A1000EE0FFF1FE253FC4F928F818F8091F703FF
:100A20008F5F8093F7030E9429046093FC03709307
:100A3000FD038093FE039093FF0389819A81AB812C
:100A4000BC818093F8039093F903A093FA03B093C9
:100A5000FB0302C01092F70328960FB6F894DEBF8E
:100A60000FBECDBFDF91CF9108950895CF92DF9251
:100A7000EF92FF920F931F93CF93DF938C01EB01C3
:100A8000FC01C080D180E280F380C114D104E10474
:100A9000F10469F50E942904F8016083718382835F
:100AA00093830E942904F8010081118122813381FE
:100AB000601B710B820B930B9E0150E040E00E9483
:100AC0007E0ED695C7956E01F12CE12C21E06C15B8
:100AD0007D058E059F0508F020E0822FDF91CF91E4
:100AE0001F910F91FF90EF90DF90CF9008950E949B
:100AF00029046C157D058E059F0560F2D2CF8230EA
:100B000049F0833021F0813039F4822F01C0862FE3
:100B100081700895842FFCCF80E008959C0193E0BC
:100B200081E0662311F091E083E0A9014E5E52401E
:100B3000453F514060F0273D86E0380728F02B3CC8
:100B4000384020F4892F089582E0089580E00895C8
:100B5000FC0101900020E9F73197AF01481B590BC8
:100B6000BC018EE793E00C94A8038F929F92AF9202
:100B7000BF920F931F93CF93DF93CDB7DEB7A197AB
:100B80000FB6F894DEBF0FBECDBF19A2423008F4F5
:100B90004AE08E010F5D1F4F842E912CB12CA12CA9
:100BA000A50194010E947E0EE62FB901CA01EA3028
:100BB000F4F4E05DD801EE938D01232B242B252B3B
:100BC00079F790E080E0109719F0CD010E94A80518
:100BD000A1960FB6F894DEBF0FBECDBFDF91CF91C7
:100BE0001F910F91BF90AF909F908F900895E95CF7
:100BF000E1CFCF93DF930E94A805EC0180E391E061
:100C00000E94A8058C0F9D1FDF91CF9108950C9431
:100C1000A805CF93DF93BC01990F880B990B4AE08D
:100C20000E94B505EC0180E391E00E94A8058C0FBD
:100C30009D1FDF91CF910895CF93DF93682F70E0D0
:100C400090E080E04AE00E94B505EC0180E391E08D
:100C50000E94A8058C0F9D1FDF91CF9108951F92D0
:100C60000F920FB60F9211248F939F938091E10002
:100C70009091E100937F9093E10083FF0FC0109269
:100C8000E90091E09093EB001092EC0092E39093D6
:100C9000ED0010927D0398E09093F00082FF22C057
:100CA00093E09093E9009091F200992319F09AE370
:100CB0009093E80090914203992341F09091420370
:100CC000915090934203911101C05D9890917C03E3
:100CD000992341F090917C03915090937C03911162
:100CE00001C0289884FF18C08091E2008E7E816048
:100CF0008093E2008091E1008F7E8093E1008091FB
:100D000043038E7E8061809343039F918F910F9068
:100D10000FBE0F901F90189580FFF7CF8091E200D3
:100D20008E7E80618093E2008091E1008E7E8093D0
:100D3000E100809143038E7E8160E5CF1F920F9288
:100D40000FB60F921124CF92DF92EF92FF920F9382
:100D50001F932F933F934F935F936F937F938F9343
:100D60009F93AF93BF93EF93FF93CF93DF93CDB751
:100D7000DEB76C97DEBFCDBF1092E9008091E8002E
:100D800083FF25C068E0CE0145960E943B0282EFBA
:100D90008093E8008D8987FF39C09091E80090FF2B
:100DA000FCCF982F907609F034C19E894F89588DD9
:100DB0002F89F88C911131C0803861F580914403FE
:100DC0008093F1001092F1008EEF8093E8006C9612
:100DD0000FB6F894DEBF0FBECDBFDF91CF91FF916C
:100DE000EF91BF91AF919F918F917F916F915F91A3
:100DF0004F913F912F911F910F91FF90EF90DF90B6
:100E0000CF900F900FBE0F901F9018959EEF90936C
:100E1000E800C7CF1092F100D5CF913059F481117D
:100E2000D3CF4130510581F6809144038D7F80936B
:100E30004403CACF933049F48111C6CF41305105E4
:100E400019F6809144038260F2CF953041F480918D
:100E5000E80080FFFCCF20682093E300B5CF9630F8
:100E600009F0A9C00B8D1C8D22E01092E9001092B0
:100E7000400310923F03F2122EC010923E031092D4
:100E80003D030E940A021F8299E09983FA8291E051
:100E90009E8390EA98879AEF998720913F0330913B
:100EA0004003275F3F4F3C832B838D831092E900E3
:100EB0001092400310923F0310933E0300933D03B2
:100EC00049E050E0BE016F5F7F4F80E00E94E40187
:100ED0000E940A0279CF10933E0300933D030E94C3
:100EE0006F01DC0112960D911C910115110509F499
:100EF00051C1D801ED91FC910480F581E02DBE0136
:100F00006B5E7F4FC8010995009709F03EC1F8015B
:100F100000851185EACFF3E0FF120EC08F89882388
:100F200009F440C0823061F440E86DE089E891E066
:100F30000E94B101811148CF81E28093EB0047CF3D
:100F4000813029F440E86BE08DE791E0F1CF833008
:100F500099F70E946F01DC011296ED90FC908E01D2
:100F60000F5F1F4F6801E114F10479F0D701ED9193
:100F7000FC910680F781E02DB801C7010995080FA3
:100F8000111DF701E084F184EECFD8011C92F60127
:100F900001900020E9F73197BF016C197D0940E00D
:100FA000C601C6CF67E671E0FB01449150E080E8DE
:100FB0000E94E40109CF973009F4BECF983021F4A4
:100FC00081E08093F10000CF993009F0FDCE83706D
:100FD00009F0B2CFE8E1F1E081E031E096E3219160
:100FE000222371F08093E9003093EB00DF01119729
:100FF0002C912093EC009093ED008F5F873079F770
:101000008EE78093EA001092EA008F8980937D0337
:10101000DBCE8B8D9C8D1092E900109240031092D4
:101020003F0390933E0380933D03898D811192C0CD
:101030008E899D89913A49F4813209F07DCF47E04C
:1010400050E065E071E080E0B3CF913209F074CFF9
:10105000833269F48F89988DB0E0A0E0809301011C
:1010600090930201A0930301B0930401ADCE8032AE
:1010700069F48091E80082FFFCCF67E085E091E0B1
:101080000E943B028BEF8093E8009ECE823209F0F3
:101090009BCE8F8980930C01EEEFFFE785919491B1
:1010A0008B3F9C4D51F1E0E0F8E08091050190917B
:1010B0000601A0910701B0910801803B9440A10571
:1010C000B105F1F480910C0180FD1AC0EE3F8AE079
:1010D000F80789F587E797E791838083809160001F
:1010E0008093410388E19BE00FB6F894A895809324
:1010F00060000FBE9093600067CEEEEFFAE0D5CFB0
:10110000808191818737974709F05ECEA8958091BD
:10111000600088618093600080914103809360004B
:10112000EE3F2AE0F20789F08091FE0A9091FF0AD3
:101130009183808349CE808191818737980751F2CE
:101140009093FF0A8093FE0AC5CF1092FF0A109277
:10115000FE0A3ACE0E946F01DC0112960D911C919D
:101160000115110509F4E8CED801ED91FC9101902B
:10117000F081E02DBE016B5E7F4FC80109958111A2
:1011800023CEF80100851185EBCF181619060CF453
:101190001BCED2CEF1E0FF12BECE6BE671E004CFE3
:1011A0001F920F920FB60F9211242F933F938F939C
:1011B0009F93AF93BF938091350390913603A09195
:1011C0003703B09138033091340323E0230F2D37D8
:1011D00058F50196A11DB11D20933403809335036A
:1011E00090933603A0933703B0933803809139036B
:1011F00090913A03A0913B03B0913C030196A11D4D
:10120000B11D8093390390933A03A0933B03B093AD
:101210003C03BF91AF919F918F913F912F910F9080
:101220000FBE0F901F90189526E8230F0296A11D60
:10123000B11DD2CF1F920F920FB60F9211242F9390
:101240003F934F935F936F937F938F939F93AF934E
:10125000BF93EF93FF93E0911501F091160109956B
:10126000FF91EF91BF91AF919F918F917F916F917E
:101270005F914F913F912F910F900FBE0F901F9054
:1012800018951F920F920FB60F9211242F933F9330
:101290004F935F936F937F938F939F93AF93BF937E
:1012A000EF93FF93E0911301F09114010995FF91E1
:1012B000EF91BF91AF919F918F917F916F915F91CE
:1012C0004F913F912F910F900FBE0F901F90189547
:1012D0001F920F920FB60F9211242F933F934F93AB
:1012E0005F936F937F938F939F93AF93BF93EF938E
:1012F000FF93E0911101F09112010995FF91EF9197
:10130000BF91AF919F918F917F916F915F914F911D
:101310003F912F910F900FBE0F901F9018951F9225
:101320000F920FB60F9211242F933F934F935F9319
:101330006F937F938F939F93AF93BF93EF93FF939D
:10134000E0910F01F09110010995FF91EF91BF918C
:10135000AF919F918F917F916F915F914F913F914D
:101360002F910F900FBE0F901F9018951F920F9204
:101370000FB60F9211242F933F934F935F936F9368
:101380007F938F939F93AF93BF93EF93FF93E091DE
:101390000D01F0910E010995FF91EF91BF91AF9171
:1013A0009F918F917F916F915F914F913F912F917D
:1013B0000F900FBE0F901F9018951F920F920FB6AF
:1013C0000F9211242F933F934F936F937F938F939B
:1013D0009F93AF93BF93EF93FF93809100018F5F33
:1013E00080930001811138C0E0E8F2E047818581F7
:1013F000411103C090859923E9F090E03681232FB5
:1014000030E0BC01621B730B161617064CF4442324
:1014100089F0240F311D2817390764F4C9010AC067
:10142000672B41F04085442329F0241B31098217A2
:101430009307A4F386838681882349F09181A28152
:10144000B3818481911131C09C91892B8C93399601
:1014500083E0E433F80751F6E0E8F2E0808187FDAD
:101460000FC080910001968198130AC09181A281DA
:10147000B381848191111DC09C91809589238C93A7
:10148000399683E0E433F80749F7FF91EF91BF9174
:10149000AF919F918F917F916F914F913F912F913C
:1014A0000F900FBE0F901F9018959C9180958923E7
:1014B000CDCF9C91892BE3CFEEE7F3E0138212822C
:1014C00088EE93E0A0E0B0E084839583A683B783A1
:1014D00082E291E0918380838FEF9FEF95878487ED
:1014E000EEECF3E088E0808B118A128A138A148A6A
:1014F000158A168A178A108E81A712A613A614A61B
:1015000015A616A617A610AA11AA0895CF93DF93C1
:1015100000D01F92CDB7DEB7789484B5826084BDC9
:1015200084B5816084BD85B5826085BD85B58160E7
:1015300085BD80916E00816080936E001092810065
:101540008091810082608093810080918100816020
:1015500080938100809180008160809380008091E1
:1015600091008260809391008091910081608093CE
:101570009100809190008160809390008091C100E3
:1015800084608093C1008091C10082608093C1001B
:101590008091C10081608093C1008091C30081600F
:1015A0008093C3008091C00082608093C0008091CE
:1015B000C20081608093C20080917A008460809331
:1015C0007A0080917A00826080937A0080917A001C
:1015D000816080937A0080917A00806880937A009D
:1015E00010927D0310924403109243038091D70020
:1015F00081608093D70080EA8093D80089B58061AC
:1016000089BD89B5826089BD09B400FEFDCF0E9405
:1016100090038091D8008F7C80618093D800809166
:10162000E000807F8093E0008091E1008E7E8093D7
:10163000E1008DE08093E200559A209A5D98289809
:1016400062E082E00E943A0362E083E00E943A0393
:1016500062E087E00E943A0362E086E10E943A037A
:1016600062E087E10E943A0361E082E10E943A036E
:1016700061E08AE00E943A0361E08BE00E943A0355
:1016800061E083E10E943A0361E088E00E943A034E
:1016900061E089E00E943A0361E085E00E943A033C
:1016A00061E086E00E943A0361E084E10E943A032F
:1016B00061E08CE00E943A0361E085E10E943A0318
:1016C00065E374E081E00E94F70065EB74E080E080
:1016D0000E94F7008FEF9FEF90938B0380938A0314
:1016E00038EE432E33E0532E612C712C0E942904D6
:1016F0000091E3031091E4032091E5033091E603A8
:10170000601B710B820B930B02E0603D77408105FB
:10171000910540F48091D4039091D50360E00E943C
:101720008E05082F00936B030E942904C090E303E9
:10173000D090E403E090E503F090E6036C197D0996
:101740008E099F0912E0603D77408105910540F4C4
:101750008091DC039091DD0360E00E948E05182FDC
:1017600010936F0320E040E061E0812F0E947F052D
:101770008B838093660321E040E060E0812F0E942C
:101780007F05282E8093640320E040E061E0802FF5
:101790000E947F058093620321E040E060E0802F9B
:1017A0000E947F05809360030E942904C090FC037F
:1017B000D090FD03E090FE03F090FF036C197D09CB
:1017C0008E099F09603D77408105910508F002C1AF
:1017D0008091F5039091F6032091F3033091F40387
:1017E000A9014E5E5240453F514008F4F6C0AC019D
:1017F0004E5E5240453F514008F4F2C0213D374013
:1018000008F0F1C0813D974008F0EDC082E08A8386
:101810006A8160935A030E942904C090FC03D0900F
:10182000FD03E090FE03F090FF036C197D098E0923
:101830009F0923E0B22E603D77408105910540F479
:101840008091ED039091EE0361E00E948E05B82E29
:10185000B0925C030E942904C090FC03D090FD0369
:10186000E090FE03F090FF036C197D098E099F093B
:10187000CC24C394603D77408105910540F480916C
:10188000EB039091EC0361E00E948E05C82EC0929C
:101890005D030E9429042091FC033091FD034091D7
:1018A000FE035091FF03621B730B840B950B603D8D
:1018B00077408105910508F098C08091E9039091E7
:1018C000EA0361E00E948E05D82ED0925E030E944A
:1018D00029042091FC033091FD034091FE035091B7
:1018E000FF03621B730B840B950B603D77408105F2
:1018F000910508F07DC08091E7039091E80361E0D5
:101900000E948E05E82EE0925F0321E041E060E056
:101910008A810E947F05F82E8093580321E040E0E1
:1019200060E08A810E947F05882E8093560321E023
:1019300040E060E08B2D0E947F05982E8093540339
:1019400021E040E060E08C2D0E947F05382E8093DE
:10195000520321E040E060E08D2D0E947F058983E5
:101960008093500321E040E060E08E2D0E947F05CF
:10197000A82E80934E03F0925903809257036B81F7
:1019800061110DC02220B9F164EF71E085E493E0AC
:101990000E94360591E09B83811101C01B822B813F
:1019A0002093670390925503498140935103A0927D
:1019B0004F03332049F168EE73E089E493E00E941D
:1019C000360591E0811101C090E0909363039093FC
:1019D00061032BC093E09A831BCF21E02A8318CFA9
:1019E00043E04A8315CF1A8213CF93E0D92E6DCFEF
:1019F00083E0E82E88CF10924503109246031092A0
:101A0000470310924803CBCF80916203882309F4E7
:101A100033C168EE73E089E493E00E94360591E0FB
:101A2000811101C090E0909363036F2D82E10E94C9
:101A3000C902682D8AE00E94C9026B818BE00E9476
:101A4000C902692D83E10E94C9026A2D85E10E94C5
:101A5000C9020E942904A30192010E947E0E643FE4
:101A600071408105910508F435C180914D038111C4
:101A700031C183E391E00E94F90585E491E00E9481
:101A80000706802F0E941C0685E591E00E9407064C
:101A9000812F0E941C0685E691E00E94F90587E7E8
:101AA00091E00E9407068A810E941C0687E891E067
:101AB0000E9407068B2D0E941C0687E991E00E9478
:101AC00007068C2D0E941C0687EA91E00E940706FB
:101AD0008D2D0E941C0685E591E00E9407068E2D43
:101AE0000E941C0687EB91E00E94F90589EC91E0C9
:101AF0000E9407068F2D90E00E94090685ED91E077
:101B00000E9407068091560390E00E94090684EE29
:101B100091E00E9407068091660390E00E9409060A
:101B200084EF91E00E9407068091640390E00E9498
:101B3000090689E092E00E9407068091540390E034
:101B40000E94090684E192E00E94070680915003FA
:101B500090E00E94090682E292E00E9407068091CE
:101B60004E0390E00E9409068DE292E00E94070673
:101B70008091520390E00E9409068BE392E00E945C
:101B800007068091620390E00E9409068CE492E0CF
:101B90000E9407068091600390E00E9409068EE58E
:101BA00092E00E94F90589EC91E00E94070680917D
:101BB000590390E00E94090685ED91E00E94070616
:101BC0008091570390E00E94090684EE91E00E9404
:101BD00007068091670390E00E94090684EF91E078
:101BE0000E9407068091650390E00E94090689E043
:101BF00092E00E9407068091550390E00E9409063A
:101C000084E192E00E9407068091510390E00E94D7
:101C1000090682E292E00E94070680914F0390E05D
:101C20000E9409068DE292E00E940706809153030C
:101C300090E00E9409068BE392E00E9407068091E3
:101C4000630390E00E9409068CE492E00E9407067C
:101C50008091610390E00E9409068EE692E00E9466
:101C6000F90581E080934D0380E090E0892B09F431
:101C70003DCD0E9400003ACD80916003882359F049
:101C800068EE73E089E493E00E94360591E08111EB
:101C90009ECE90E09CCE80916303811105C080911F
:101CA0006103882309F4C1CE68EE73E089E493E010
:101CB0000E943605882309F4B8CE1092630310926F
:101CC00061031092490310924A0310924B03109241
:101CD0004C03ABCE0E942904A30192010E947E0E08
:101CE000643F71408105910508F0BECF80914D039E
:101CF000882309F4B9CF10924D03B6CFA1E21A2E72
:101D0000AA1BBB1BFD010DC0AA1FBB1FEE1FFF1F9F
:101D1000A217B307E407F50720F0A21BB30BE40BEF
:101D2000F50B661F771F881F991F1A9469F7609536
:101D30007095809590959B01AC01BD01CF010895F0
:101D4000EE0FFF1F0590F491E02D0994F894FFCF5A
:101D5000FFFFFFFFFF00E100000000000035053538
:101D60000535053505350500C180810000000000FE
:101D700000004802A80369025E02AF026D028B02F6
:101D80000D0A002D2D4D756C746973776974636845
:101D900020312D2D006C6F776572537769746368FD
:101DA00020313A20007570706572537769746368EA
:101DB00020333A20002D2D4D756C7469737769744A
:101DC000636820322D2D006C6F77657253776974CC
:101DD000636820303A2000757070657253776974BB
:101DE000636820303A2000757070657253776974AB
:101DF000636820313A20007570706572537769749A
:101E0000636820323A20002D2D204C6967687420C9
:101E10005374617465202D2D007061726B4C69677D
:101E200068743A20006C6F774265616D4C69676831
:101E3000743A2000686967684265616D4C6967683B
:101E4000743A2000686967684265616D4C6967682B
:101E500074466C6173683A2000666F674C69676806
:101E6000743A2000626561636F6E4C696768743A0A
:101E700020006175784C696768743A200068617A5F
:101E80006172644C696768743A20006C65667446D8
:101E90006C6173684C696768743A2000726967689E
:101EA00074466C6173684C696768743A20002D2D24
:101EB000204C69676874204F7574202D2D002D2DDE
:101EC0002D2D2D2D2D456E642D2D2D2D2D2D2D00DF
:00000001FF
