:100000000C94BD000C9465080C943E080C941708E1
:100010000C94F0070C94E5000C94E5000C94C907CF
:100020000C94E5000C94E5000C94DE040C944D0552
:100030000C94E5000C94E5000C94E5000C94E500AC
:100040000C94E5000C94E5000C94E5000C94E5009C
:100050000C94E5000C94E5000C94E5000C947F07EB
:100060000C94E5000C94E5000C94E5000C94E5007C
:100070000C94E5000C94E5000C94E5000C94E5006C
:100080000C94E5000C94E5000C94E5000C94E5005C
:100090000C94E5000C94E5000C948C080C94E5009D
:1000A0000C94E5000C94E5000C94E50000000000C1
:1000B000250028002B002E00310000000000240045
:1000C00027002A002D003000040404040403040562
:1000D00002020202040302020202060606060606E5
:1000E00004040202020404040802011040804010CB
:1000F000204080408008020401804020100201104E
:10010000801020404020080B000202020000090479
:100110000000010202000005240010010524010175
:1001200001042402060524060001070581031000CE
:100130004009040100020A00000007050202400015
:1001400000070583024000000403090412010002B5
:10015000EF02014041233780000101020301417297
:100160006475696E6F204C4C430041726475696E12
:100170006F204D6963726F000B0911241FBECFEF12
:10018000DAE0DEBFCDBF11E0A0E0B1E0E6EAF7E1E2
:1001900002C005900D92A033B107D9F722E0A0E389
:1001A000B1E001C01D92A93AB207E1F710E0CDEB32
:1001B000D0E004C02197FE010E94CB0BCC3BD107BD
:1001C000C9F70E9435090C94D10B0C940000E82F5C
:1001D000F0E0EE0FFF1FE35FFE4F7183608382301C
:1001E000D9F028F4882341F0813071F008958330EC
:1001F000D9F0843009F10895809169008C7F816085
:1002000080936900E89A089580916900837F8460F3
:1002100080936900E99A0895809169008F7C8061DC
:1002200080936900EA9A0895809169008F738064D1
:1002300080936900EB9A089580916A008F7C8061B9
:1002400080936A00EE9A0895FC018091260288232B
:1002500011F13FB7F89482E08093E9002091F20019
:10026000822F90E01816190614F481E090E088239C
:1002700039F0289A44E6409325024091F1004083EA
:10028000222339F02091F200211103C02BE62093A4
:10029000E8003FBF08958FEF9FEF08952FB7F894C0
:1002A00083E08093E9009091E800892F807295FFA8
:1002B00004C09091F20080E4891B2FBF08958091C3
:1002C0001D0281110DC082E08093190284E08093A9
:1002D0001A0210921C0210921B0281E080931D02F0
:1002E00089E192E00895CF93DF931F92CDB7DEB7F7
:1002F0006983DC01ED91FC910280F381E02D41E006
:1003000050E0BE016F5F7F4F09950F90DF91CF9155
:10031000089583E08093E9008091F200882319F02A
:100320008AE38093E80008950E944E0190E00895CA
:10033000CF93DF931F92CDB7DEB7FC0184859585FF
:1003400097FD08C02FEF3FEF358724870F90DF918F
:10035000CF910895CE0101960E942401019719F4CE
:10036000898190E0F3CF8FEF9FEFF0CF0F931F9332
:10037000CF93DF931F92CDB7DEB78C01FC0184854C
:10038000958597FF0BC0CE0101960E94240101972D
:1003900071F4898190E0F80195878487F80184855C
:1003A00095850F90DF91CF911F910F9108958FEF59
:1003B0009FEFF1CFFC018485958597FD0BC09FB71A
:1003C000F89482E08093E9008091F2009FBF90E072
:1003D000019608959FB7F89482E08093E900809198
:1003E000F2009FBF90E008954091130250911402D3
:1003F000209111023091120242175307B4F49091E8
:10040000E8009570E1F39091E80092FD19C08093A7
:10041000F100809113029091140201968F73992735
:10042000892B19F48EEF8093E8008091130290914C
:1004300014020196909314028093130281E00895B0
:1004400080E00895EF92FF920F931F93CF93DF9375
:10045000F82E192FE62E042F81E0860F880F0E94B8
:10046000F40183E00E94F401CF2DD12FEC0EFD2E7C
:10047000F11CCE15DF05B9F007FF13C0FE01849112
:100480000E94F401182F80E00E94F401812321963C
:100490008111EFCFDF91CF911F910F91FF90EF90DE
:1004A00008958881EDCF81E0F5CFDF92EF92FF9242
:1004B0000F931F93CF93DF93D82E8A01EB017B011B
:1004C000E40EF51ECE15DF0559F0D7FE12C0FE0171
:1004D00084910E94F40121968111F4CF0FEF1FEF58
:1004E000C801DF91CF911F910F91FF90EF90DF90A6
:1004F00008958881EECF0F931F93CF93DF931F92C0
:10050000CDB7DEB782E0898342E450E066E071E077
:1005100080E80E9455020E945F01DC0112960D9155
:100520001C910115110589F0D801ED91FC91028013
:10053000F381E02DBE016F5F7F4FC801099597FDE4
:1005400004C0F80100851185ECCF89810F90DF91FF
:10055000CF911F910F910895615030F02091F100DB
:10056000FC0120830196F8CF289A84E68093250227
:100570000895CF93DF9390E0FC01E951FF4F249160
:1005800088539F4FFC0184918823D1F090E0880F1D
:10059000991FFC01E654FF4FA591B491FC01E4556D
:1005A000FF4FC591D491623071F49FB7F8943C919C
:1005B000822F809583238C93E8812E2B28839FBFE5
:1005C000DF91CF9108958FB7F894EC912E2B2C9357
:1005D0008FBFF6CF3FB7F8948091E9019091EA017F
:1005E000A091EB01B091EC0126B5A89B05C02F3F6F
:1005F00019F00196A11DB11D3FBFBA2FA92F982F49
:100600008827BC01CD01620F711D811D911D42E043
:10061000660F771F881F991F4A95D1F70895CF92CB
:10062000DF92EF92FF920E94EA026B017C010E942E
:10063000EA026C197D098E099F09683E73408105A5
:100640009105A8F3FF90EF90DF90CF9008958F92DF
:100650009F92AF92BF92CF92DF92EF92FF920F9351
:100660001F93CF93DF936C017B018A0180910C0172
:10067000882309F458C080912602882309F453C0C6
:100680008091180280FF05C08091E0008260809315
:10069000E000E801B12C8AEFA82E93E0892E2AE32E
:1006A000922E209711F4BB20B9F10E944E018111C6
:1006B00006C0AA94AA20B9F10E940F03F2CF8C17AA
:1006C0001D0611F00CF08C2F9FB7F8948092E90072
:1006D0002091E80025FD02C09FBFE3CF282F30E026
:1006E000C21BD30BF701815020F041914093F100E0
:1006F000FACFE20EF31EBB2021F09092E800B12C5D
:10070000EBCF8091E80085FDE7CF9092E800BB2415
:10071000B394209709F3F3CF5D9A84E68093170290
:10072000101611063CF081E090E0F601938382837D
:1007300010E000E0C801DF91CF911F910F91FF9071
:10074000EF90DF90CF90BF90AF909F908F900895E3
:100750002FB7F8946091E5017091E6018091E7016F
:100760009091E8012FBF0895CF93DF93CDB7DEB707
:1007700028970FB6F894DEBF0FBECDBF0E94EA02E5
:1007800069837A838B839C8389819A81AB81BC81C5
:10079000409188025091890260918A0270918B0287
:1007A000841B950BA60BB70B8D839E83AF83B887F5
:1007B0008D819E81AF81B8858D3B9240A105B105A9
:1007C000F0F18D819E81AF81B88588399840A1056F
:1007D000B105A8F58D819E81AF81B88583359340A1
:1007E000A105B10548F08D819E81AF81B885843D1A
:1007F0009340A105B10508F1809187028830F8F493
:100800008D819E81AF81B885E0918702F0E0EE0F87
:10081000FF1FE958FD4F91838083809187028F5F8E
:10082000809387020E94A80360938C0270938D02CC
:1008300080938E0290938F0202C01092870289816A
:100840009A81AB81BC818093880290938902A093A6
:100850008A02B0938B0228960FB6F894DEBF0FBEC3
:10086000CDBFDF91CF910895CF93DF93CDB7DEB7A2
:1008700028970FB6F894DEBF0FBECDBF0E94EA02E4
:1008800069837A838B839C8389819A81AB81BC81C4
:100890004091A1025091A2026091A3027091A40222
:1008A000841B950BA60BB70B8D839E83AF83B887F4
:1008B0008D819E81AF81B8858D3B9240A105B105A8
:1008C000D8F18D819E81AF81B88588399840A10586
:1008D000B10590F58D819E81AF81B88583359340B8
:1008E000A105B10548F08D819E81AF81B885843D19
:1008F0009340A105B10568F18091A0028830E0F431
:100900008D819E81AF81B885E091A002F0E0EE0F6D
:10091000FF1FE958FD4F928F818F8091A0028F5F5A
:100920008093A0020E94A8036093A5027093A60280
:100930008093A7029093A80289819A81AB81BC81A0
:100940008093A1029093A202A093A302B093A40269
:1009500002C01092A00228960FB6F894DEBF0FBE18
:10096000CDBFDF91CF9108950895823049F0833053
:1009700021F0813039F4822F01C0862F81700895D3
:10098000842FFCCF80E008959C0193E081E06623F2
:1009900011F091E083E0A9014E5E5240453F514085
:1009A00060F0273D86E0380728F02B3C384020F4E3
:1009B000892F089582E0089580E008951F920F9294
:1009C0000FB60F9211248F939F938091E100909125
:1009D000E100937F9093E10083FF0FC01092E90044
:1009E00091E09093EB001092EC0092E39093ED0075
:1009F0001092260298E09093F00082FF22C093E0CC
:100A00009093E9009091F200992319F09AE3909362
:100A1000E80090911702992341F0909117029150AC
:100A200090931702911101C05D989091250299232E
:100A300041F090912502915090932502911101C0AF
:100A4000289884FF18C08091E2008E7E8160809398
:100A5000E2008091E1008F7E8093E1008091180296
:100A60008E7E8061809318029F918F910F900FBEB0
:100A70000F901F90189580FFF7CF8091E2008E7E37
:100A800080618093E2008091E1008E7E8093E1009E
:100A9000809118028E7E8160E5CF1F920F920FB673
:100AA0000F921124CF92DF92EF92FF920F931F9338
:100AB0002F933F934F935F936F937F938F939F9366
:100AC000AF93BF93EF93FF93CF93DF93CDB7DEB791
:100AD0006C97DEBFCDBF1092E9008091E80083FFE4
:100AE00025C068E0CE0145960E94AC0282EF80935B
:100AF000E8008D8987FF39C09091E80090FFFCCF16
:100B0000982F907609F034C19E894F89588D2F898E
:100B1000F88C911131C0803861F580911602809374
:100B2000F1001092F1008EEF8093E8006C960FB602
:100B3000F894DEBF0FBECDBFDF91CF91FF91EF9153
:100B4000BF91AF919F918F917F916F915F914F91E5
:100B50003F912F911F910F91FF90EF90DF90CF90D9
:100B60000F900FBE0F901F9018959EEF9093E80086
:100B7000C7CF1092F100D5CF913059F48111D3CF66
:100B80004130510581F6809116028D7F80931602C7
:100B9000CACF933049F48111C6CF4130510519F6BF
:100BA000809116028260F2CF953041F48091E80086
:100BB00080FFFCCF20682093E300B5CF963009F08A
:100BC000A9C00B8D1C8D22E01092E9001092140236
:100BD00010921302F2122EC0109212021092110201
:100BE0000E947B021F8299E09983FA8291E09E83A2
:100BF00090EA98879AEF9987209113023091140216
:100C0000275F3F4F3C832B838D831092E900109226
:100C1000140210921302109312020093110249E081
:100C200050E0BE016F5F7F4F80E00E9455020E943E
:100C30007B0279CF10931202009311020E945F0190
:100C4000DC0112960D911C910115110509F451C199
:100C5000D801ED91FC910480F581E02DBE016B5E21
:100C60007F4FC8010995009709F03EC1F801008542
:100C70001185EACFF3E0FF120EC08F89882309F4B3
:100C800040C0823061F440E86DE08AE691E00E9465
:100C90002202811148CF81E28093EB0047CF81305F
:100CA00029F440E86BE08EE591E0F1CF833099F7CD
:100CB0000E945F01DC011296ED90FC908E010F5FA7
:100CC0001F4F6801E114F10479F0D701ED91FC9117
:100CD0000680F781E02DB801C7010995080F111DA5
:100CE000F701E084F184EECFD8011C92F601019067
:100CF0000020E9F73197BF016C197D0940E0C6017A
:100D0000C6CF68E471E0FB01449150E080E80E94A6
:100D1000550209CF973009F4BECF983021F481E015
:100D20008093F10000CF993009F0FDCE837009F077
:100D3000B2CFE8E1F1E081E031E096E321912223B6
:100D400071F08093E9003093EB00DF0111972C9153
:100D50002093EC009093ED008F5F873079F78EE75A
:100D60008093EA001092EA008F8980932602DBCEFE
:100D70008B8D9C8D1092E900109214021092130238
:100D80009093120280931102898D811192C08E89F5
:100D90009D89913A49F4813209F07DCF47E050E0D6
:100DA00065E071E080E0B3CF913209F074CF833217
:100DB00069F48F89988DB0E0A0E080930101909351
:100DC0000201A0930301B0930401ADCE803269F417
:100DD0008091E80082FFFCCF67E085E091E00E940F
:100DE000AC028BEF8093E8009ECE823209F09BCE5E
:100DF0008F8980930C01EEEFFFE7859194918B3FF3
:100E00009C4D51F1E0E0F8E08091050190910601E0
:100E1000A0910701B0910801803B9440A105B10564
:100E2000F1F480910C0180FD1AC0EE3F8AE0F807D2
:100E300089F587E797E791838083809160008093AD
:100E4000150288E19BE00FB6F894A89580936000A6
:100E50000FBE9093600067CEEEEFFAE0D5CF8081B1
:100E600091818737974709F05ECEA8958091600001
:100E70008861809360008091150280936000EE3F4E
:100E80002AE0F20789F08091FE0A9091FF0A91838F
:100E9000808349CE808191818737980751F2909362
:100EA000FF0A8093FE0AC5CF1092FF0A1092FE0A35
:100EB0003ACE0E945F01DC0112960D911C91011542
:100EC000110509F4E8CED801ED91FC910190F08173
:100ED000E02DBE016B5E7F4FC8010995811123CEC5
:100EE000F80100851185EBCF181619060CF41BCEFE
:100EF000D2CEF1E0FF12BECE6CE471E004CF1F92BF
:100F00000F920FB60F9211242F933F938F939F93BD
:100F1000AF93BF938091E5019091E601A091E70125
:100F2000B091E8013091E40123E0230F2D3758F50B
:100F30000196A11DB11D2093E4018093E5019093DA
:100F4000E601A093E701B093E8018091E901909157
:100F5000EA01A091EB01B091EC010196A11DB11D38
:100F60008093E9019093EA01A093EB01B093EC0127
:100F7000BF91AF919F918F913F912F910F900FBE95
:100F80000F901F90189526E8230F0296A11DB11D02
:100F9000D2CF1F920F920FB60F9211242F933F932F
:100FA0004F935F936F937F938F939F93AF93BF9371
:100FB000EF93FF93E0911501F09116010995FF91D0
:100FC000EF91BF91AF919F918F917F916F915F91C1
:100FD0004F913F912F910F900FBE0F901F9018953A
:100FE0001F920F920FB60F9211242F933F934F939E
:100FF0005F936F937F938F939F93AF93BF93EF9381
:10100000FF93E0911301F09114010995FF91EF9185
:10101000BF91AF919F918F917F916F915F914F9110
:101020003F912F910F900FBE0F901F9018951F9218
:101030000F920FB60F9211242F933F934F935F930C
:101040006F937F938F939F93AF93BF93EF93FF9390
:10105000E0911101F09112010995FF91EF91BF917B
:10106000AF919F918F917F916F915F914F913F9140
:101070002F910F900FBE0F901F9018951F920F92F7
:101080000FB60F9211242F933F934F935F936F935B
:101090007F938F939F93AF93BF93EF93FF93E091D1
:1010A0000F01F09110010995FF91EF91BF91AF9160
:1010B0009F918F917F916F915F914F913F912F9170
:1010C0000F900FBE0F901F9018951F920F920FB6A2
:1010D0000F9211242F933F934F935F936F937F93BE
:1010E0008F939F93AF93BF93EF93FF93E0910D0185
:1010F000F0910E010995FF91EF91BF91AF919F91F2
:101100008F917F916F915F914F913F912F910F90B0
:101110000FBE0F901F9018951F920F920FB60F924F
:1011200011242F933F934F936F937F938F939F93AC
:10113000AF93BF93EF93FF93809100018F5F8093F4
:101140000001811138C0E0E3F1E047818581411160
:1011500003C090859923E9F090E03681232F30E099
:10116000BC01621B730B161617064CF4442389F05E
:10117000240F311D2817390764F4C9010AC0672BF1
:1011800041F04085442329F0241B3109821793073D
:10119000A4F386838681882349F09181A281B3815B
:1011A0008481911131C09C91892B8C93399681E077
:1011B000E43EF80751F6E0E3F1E0808187FD0FC0DF
:1011C00080910001968198130AC09181A281B38118
:1011D000848191111DC09C91809589238C933996AF
:1011E00081E0E43EF80749F7FF91EF91BF91AF919D
:1011F0009F918F917F916F914F913F912F910F9080
:101200000FBE0F901F9018959C9180958923CDCF8C
:101210009C91892BE3CFE7E2F2E01382128288EE01
:1012200093E0A0E0B0E084839583A683B78382E255
:1012300091E0918380838FEF9FEF95878487E7E725
:10124000F2E088E0808B118A128A138A148A158A48
:10125000168A178A108E81A712A613A614A615A6A1
:1012600016A617A610AA11AA0895789484B58260CC
:1012700084BD84B5816084BD85B5826085BD85B53A
:10128000816085BD80916E00816080936E001092B8
:101290008100809181008260809381008091810033
:1012A00081608093810080918000816080938000C4
:1012B0008091910082608093910080919100816083
:1012C0008093910080919000816080939000809144
:1012D000C10084608093C1008091C10082608093CE
:1012E000C1008091C10081608093C1008091C300E2
:1012F00081608093C3008091C00082608093C000B1
:101300008091C20081608093C20080917A008460E5
:1013100080937A0080917A00826080937A00809135
:101320007A00816080937A0080917A00806880934F
:101330007A001092260210921602109218028091E2
:10134000D70081608093D70080EA8093D80089B568
:10135000806189BD89B5826089BD09B400FEFDCF79
:101360000E940F038091D8008F7C80618093D80009
:101370008091E000807F8093E0008091E1008E7E8C
:101380008093E1008DE08093E200559A209A5D9869
:10139000289862E082E00E94B90262E083E00E9445
:1013A000B90262E087E00E94B90262E086E10E9431
:1013B000B90262E087E10E94B90261E082E10E9425
:1013C000B90261E08AE00E94B90261E08BE00E940C
:1013D000B90261E083E10E94B90261E088E00E9405
:1013E000B90261E089E00E94B90261E085E00E94F3
:1013F000B90261E086E00E94B90261E084E10E94E6
:10140000B90261E08CE00E94B90261E085E10E94CE
:10141000B90264EB73E081E00E94E70064E374E0EA
:1014200080E00E94E70034EFC32EDD24D394E12C4A
:10143000F12C00E010E00E94A80380908C029090B4
:101440008D02A0908E02B0908F02681979098A09E6
:101450009B09603D77408105910508F46AC0809141
:101460007D0290917E0260E00E94C40480930C0291
:101470000E94A80380908C0290908D02A0908E0212
:10148000B0908F02681979098A099B09C2E0603D12
:1014900077408105910540F0809185029091860208
:1014A00060E00E94C404C82FC093100220E040E016
:1014B00061E08C2F0E94B504882E8093070221E002
:1014C00040E060E08C2F0E94B504D82F8093050285
:1014D0000E94A8034090A5025090A6026090A70227
:1014E0007090A8026419750986099709603D7740D4
:1014F0008105910500F180919E0290919F022091BB
:101500009C0230919D02A9014E5E5240C1E0453FD0
:10151000514090F0AC014E5E5240453F514058F072
:10152000213D374020F4C2E0813D974028F0C0E0E3
:1015300003C082E09BCFC3E0C093FF010E94A803D9
:101540004090A5025090A6026090A7027090A80259
:10155000641975098609970923E0922E603D77404A
:101560008105910540F0809196029091970261E08B
:101570000E94C404982E909201020E94A8034090F9
:10158000A5025090A6026090A7027090A80264196C
:10159000750986099709603D77408105910508F432
:1015A000BEC0809194029091950261E00E94C404B3
:1015B000809302020E94A8034090A5025090A602C8
:1015C0006090A7027090A8026419750986099709AE
:1015D000603D77408105910508F4A3C08091920297
:1015E0009091930261E00E94C404A82EA09203028D
:1015F0000E94A8034090A5025090A6026090A70206
:101600007090A8026419750986099709603D7740B2
:101610008105910508F488C0809190029091910213
:1016200061E00E94C404B82EB092040221E041E0BF
:1016300060E08C2F0E94B504782E8093FD0121E09C
:1016400040E060E08C2F0E94B504C82F8093FB011E
:1016500021E040E060E0892D0E94B5048093F9010B
:1016600021E040E060E08A2D0E94B5048093F701FC
:1016700021E040E060E08B2D0E94B5048093F501ED
:101680007092FE01C093FC0180920802DD2309F4F0
:1016900057C08090ED019090EE01A090EF01B090C6
:1016A000F00181149104A104B10409F040C00E942A
:1016B000A8036093ED017093EE018093EF01909386
:1016C000F0010E94A8038090ED019090EE01A0909F
:1016D000EF01B090F001681979098A099B09A70107
:1016E00096010E94A90BD1E06A3F71058105910521
:1016F00008F0D0E0D09306028091F9018093FA01BE
:101700008091F7018093F8018091F5018093F601B3
:101710000115110509F48FCE0E9400008CCE81E0E6
:1017200047CF93E0A92E62CF83E0B82E7DCF0E94F1
:10173000A803681579058A059B0508F4B8CFC1CFC1
:101740001092ED011092EE011092EF011092F00153
:10175000D1CFA1E21A2EAA1BBB1BFD010DC0AA1FEF
:10176000BB1FEE1FFF1FA217B307E407F50720F00A
:10177000A21BB30BE40BF50B661F771F881F991F85
:101780001A9469F760957095809590959B01AC01CE
:10179000BD01CF010895EE0FFF1F0590F491E02DDC
:0617A0000994F894FFCF4C
:1017A600FFFFFFFFFF00E1000000000000B404B4EB
:1017B60004B404B404B40400C18081000000000035
:1017C60000007301270394018901DA019801B6012B
:00000001FF
