:100000000C943E010C946B0B0C94440B0C941D0B44
:100010000C94F60A0C9466010C9466010C94CF0AB9
:100020000C9466010C9466010C94E4070C9453083C
:100030000C9466010C9466010C9466010C946601A4
:100040000C9466010C9466010C9466010C94660194
:100050000C9466010C9466010C9466010C94850A5C
:100060000C9466010C9466010C9466010C94660174
:100070000C9466010C9466010C9466010C94660164
:100080000C9466010C9466010C9466010C94660154
:100090000C9466010C9466010C94920B0C9466010E
:1000A0000C9466010C9466010C946601000000003B
:1000B000240027002A002D0030000000000023004B
:1000C000260029002C002F000000000200090F006C
:1000D00000030401000C000000000000000000000C
:1000E00000000000000000080B00020202000009EE
:1000F0000400000102020000052400100105240193
:1001000001010424020605240600010705810310ED
:10011000004009040100020A000000070502024035
:1001200000000705830240000004030904120100D7
:1001300002EF020140412337800001010203014127
:10014000726475696E6F204C4C430041726475692E
:100150006E6F204D6963726F002D2D2D2D2D2D2D6D
:10016000456E642D2D2D2D2D2D2D006272616B6538
:100170004C696768743A2000726576657273654CE5
:10018000696768743A20007269676874466C6173C5
:10019000684C696768743A20006C656674466C61E7
:1001A00073684C696768743A200068617A617264A8
:1001B0004C696768743A20006175784C69676874A7
:1001C0003A2000626561636F6E4C696768743A201B
:1001D00000666F674C696768743A200068696768F1
:1001E0004265616D4C69676874466C6173683A205A
:1001F00000686967684265616D4C696768743A2098
:10020000006C6F774265616D4C696768743A2000D5
:100210007061726B4C696768743A20002D2D204C18
:1002200069676874205374617465202D2D0004087B
:1002300002011040804010204080408008020401EC
:10024000804020100201108010204040200000005B
:1002500000250028002B002E0031000404040404B3
:100260000304050202020204030202020206060659
:1002700006060604040202020404110C11241FBE27
:10028000CFEFDAE0DEBFCDBF11E0A0E0B1E0EEE3FA
:10029000F2E202C005900D92A433B107D9F722E033
:1002A000A4E3B1E001C01D92A63CB207E1F711E062
:1002B000CEE3D1E004C02197FE010E94E910CD33C6
:1002C000D107C9F70E943B0C0C941D110C9400003F
:1002D000E82FF0E0EE0FFF1FE45FFE4F71836083B5
:1002E0008230D9F028F4882341F0813071F00895EC
:1002F0008330D9F0843009F10895809169008C7FB2
:10030000816080936900E89A089580916900837FF5
:10031000846080936900E99A0895809169008F7CD8
:10032000806180936900EA9A0895809169008F73D3
:10033000806480936900EB9A089580916A008F7CB5
:10034000806180936A00EE9A0895FC0180918E018D
:10035000882311F13FB7F89482E08093E90020915F
:10036000F200822F90E01816190614F481E090E054
:10037000882339F0289A44E640938D014091F1009A
:100380004083222339F02091F200211103C02BE693
:100390002093E8003FBF08958FEF9FEF08952FB798
:1003A000F89483E08093E9009091E800892F8072AF
:1003B00095FF04C09091F20080E4891B2FBF08953F
:1003C0008091850181110DC082E08093810184E0DC
:1003D00080938201109284011092830181E08093C6
:1003E000850181E891E0089540913F0150914001DD
:1003F00020913D0130913E0142175307B4F4909192
:10040000E8009570E1F39091E80092FD19C08093A7
:10041000F10080913F019091400101968F739927DF
:10042000892B19F48EEF8093E80080913F01909121
:10043000400101969093400180933F0181E008952F
:1004400080E00895EF92FF920F931F93CF93DF9375
:10045000F82E192FE62E042F81E0860F880F0E94B8
:10046000F40183E00E94F401CF2DD12FEC0EFD2E7C
:10047000F11CCE15DF05B9F007FF13C0FE01849112
:100480000E94F401182F80E00E94F401812321963C
:100490008111EFCFDF91CF911F910F91FF90EF90DE
:1004A00008958881EDCF81E0F5CFDF92EF92FF9242
:1004B0000F931F93CF93DF93D82E8A01EB017B011B
:1004C000E40EF51ECE15DF0559F0D7FE12C0FE0171
:1004D00084910E94F40121968111F4CF0FEF1FEF58
:1004E000C801DF91CF911F910F91FF90EF90DF90A6
:1004F00008958881EECF0F931F93CF93DF931F92C0
:10050000CDB7DEB782E0898342E450E067EE70E069
:1005100080E80E9455020E94E001DC0112960D91D4
:100520001C910115110589F0D801ED91FC91028013
:10053000F381E02DBE016F5F7F4FC801099597FDE4
:1005400004C0F80100851185ECCF89810F90DF91FF
:10055000CF911F910F910895615030F02091F100DB
:10056000FC0120830196F8CF289A84E680938D01C0
:100570000895CF93DF931F92CDB7DEB76983DC0177
:10058000ED91FC910280F381E02D41E050E0BE014D
:100590006F5F7F4F09950F90DF91CF9108950F9373
:1005A0001F93CF93DF938C01D0E0C0E0F801EC0FF4
:1005B000FD1F6491662341F084E492E00E94B90239
:1005C000892B11F02196F2CFCE01DF91CF911F91AF
:1005D0000F91089583E08093E9008091F2008823D1
:1005E00019F08AE38093E80008950E94CF0190E01B
:1005F0000895CF93DF931F92CDB7DEB7FC018485BA
:10060000958597FD08C02FEF3FEF358724870F9022
:10061000DF91CF910895CE0101960E94A501019727
:1006200019F4898190E0F3CF8FEF9FEFF0CF0F9314
:100630001F93CF93DF931F92CDB7DEB78C01FC01E0
:100640008485958597FF0BC0CE0101960E94A50178
:10065000019771F4898190E0F80195878487F8010A
:10066000848595850F90DF91CF911F910F9108950B
:100670008FEF9FEFF1CFFC018485958597FD0BC02F
:100680009FB7F89482E08093E9008091F2009FBFC9
:1006900090E0019608959FB7F89482E08093E90076
:1006A0008091F2009FBF90E0089581508F3008F054
:1006B00047C0E82FF0E0E15AFC4F0C94E9107C03AE
:1006C00080036E0374037803A003A003A0038303D5
:1006D00089038D0391039703A0039B0380918000FE
:1006E0008F77809380000895809180008F7DF9CF6F
:1006F00080918000877FF5CF84B58F7784BD089582
:1007000084B58F7DFBCF809190008F778093900090
:100710000895809190008F7DF9CF80919000877F20
:10072000F5CF8091C0008F778093C00008958091AD
:10073000C0008F7DF9CF8091C200877F8093C20077
:100740000895CF93DF93282F30E0F901E853FF4F4E
:100750008491F901E25DFD4FD491F901E55AFD4F15
:10076000C491CC23A1F081110E945503EC2FF0E03D
:10077000EE0FFF1FE654FF4FA591B491EC91ED23CE
:1007800081E090E009F480E0DF91CF91089580E06E
:1007900090E0FACF1F93CF93DF93282F30E0F90139
:1007A000E853FF4F8491F901E25DFD4FD491F901C7
:1007B000E55AFD4FC491CC23A9F0162F81110E9458
:1007C0005503EC2FF0E0EE0FFF1FE35BFD4FA5910B
:1007D000B4918FB7F894EC91111108C0D095DE2335
:1007E000DC938FBFDF91CF911F910895DE2BF8CF5F
:1007F000CF93DF9390E0FC01E25DFD4F2491855A99
:100800009D4FFC0184918823D1F090E0880F991FBF
:10081000FC01E455FF4FA591B491FC01E35BFD4F52
:10082000C591D491623071F49FB7F8943C91822FB6
:10083000809583238C93E8812E2B28839FBFDF91A3
:10084000CF9108958FB7F894EC912E2B2C938FBFF6
:10085000F6CFCF93E0E9F1E0AFEF90E0208187FFA2
:1008600005C027FF47C0AF3F41F406C0821709F417
:1008700041C0AF3F11F427FDA92F9F5F39969431F6
:1008800069F787FD3AC0AF3F09F437C0C82F89E048
:10089000A802D0011124A057BE4FCC9320918F0104
:1008A00011962C9311978C2F0C2E000C990BFC0198
:1008B000E55AFD4FE491F0E0EE0FFF1FE35BFD4FC3
:1008C0004591549113965C934E931297FC01E25D0F
:1008D000FD4FE4911496EC93149715966C9360E099
:1008E000211161E08C2F0E94CA0361E08C2FCF910F
:1008F0000C94F803658387FDBCCFCF910895CF9307
:10090000C82F60E00E942904E0E9F1E090E080E077
:100910002081C2130DC029E0289FF001299FF00D0E
:100920001124E057FE4F84E187838087CF9108959B
:10093000019639968431910559F7F8CF3FB7F8946D
:100940008091390190913A01A0913B01B0913C0115
:1009500026B5A89B05C02F3F19F00196A11DB11D1A
:100960003FBFBA2FA92F982F8827BC01CD01620F56
:10097000711D811D911D42E0660F771F881F991F11
:100980004A95D1F70895CF92DF92EF92FF920E949D
:100990009E046B017C010E949E046C197D098E09E6
:1009A0009F09683E734081059105A8F3FF90EF9081
:1009B000DF90CF9008958F929F92AF92BF92CF9287
:1009C000DF92EF92FF920F931F93CF93DF936C010F
:1009D0007B018A0180910B01882309F458C0809122
:1009E0008E01882309F453C08091430180FF05C024
:1009F0008091E00082608093E000E801B12C8AEFF2
:100A0000A82E93E0892E2AE3922E209711F4BB2082
:100A1000B9F10E94CF01811106C0AA94AA20B9F1B0
:100A20000E94C304F2CF8C171D0611F00CF08C2F1E
:100A30009FB7F8948092E9002091E80025FD02C05C
:100A40009FBFE3CF282F30E0C21BD30BF7018150AB
:100A500020F041914093F100FACFE20EF31EBB204B
:100A600021F09092E800B12CEBCF8091E80085FD59
:100A7000E7CF9092E800BB24B394209709F3F3CF1B
:100A80005D9A84E680934201101611063CF081E0E5
:100A900090E0F6019383828310E000E0C801DF91CB
:100AA000CF911F910F91FF90EF90DF90CF90BF906B
:100AB000AF909F908F9008952FB7F8946091350173
:100AC0007091360180913701909138012FBF0895C0
:100AD0000F931F93CF93DF93EC018B010E945C0572
:100AE00024E630E040E050E00E94A8106233710537
:100AF00081059105C8F08A81811116C0288139814C
:100B0000C801821B930B64E170E00E949410620F95
:100B1000731F7983688381E08A8388819981DF915B
:100B2000CF911F910F9108950E945C0524E630E05B
:100B300040E050E00E94A8106233710581059105E4
:100B400060F78A81882349F31A82E7CFCF93DF9336
:100B5000CDB7DEB728970FB6F894DEBF0FBECDBF76
:100B60000E949E0469837A838B839C8389819A8106
:100B7000AB81BC814091A5025091A6026091A70271
:100B80007091A802841B950BA60BB70B8D839E83D7
:100B9000AF83B8878D819E81AF81B8858D3B9240B0
:100BA000A105B105F0F18D819E81AF81B8858839AD
:100BB0009840A105B105A8F58D819E81AF81B885CA
:100BC00083359340A105B10548F08D819E81AF81A9
:100BD000B885843D9340A105B10508F18091A40238
:100BE0008830F8F48D819E81AF81B885E091A402B0
:100BF000F0E0EE0FFF1FEC56FD4F91838083809154
:100C0000A4028F5F8093A4020E945C056093A902F6
:100C10007093AA028093AB029093AC0202C0109230
:100C2000A40289819A81AB81BC818093A5029093B3
:100C3000A602A093A702B093A80228960FB6F89434
:100C4000DEBF0FBECDBFDF91CF910895CF93DF936D
:100C5000CDB7DEB728970FB6F894DEBF0FBECDBF75
:100C60000E949E0469837A838B839C8389819A8105
:100C7000AB81BC814091BE025091BF026091C00225
:100C80007091C102841B950BA60BB70B8D839E83BD
:100C9000AF83B8878D819E81AF81B8858D3B9240AF
:100CA000A105B105D8F18D819E81AF81B8858839C4
:100CB0009840A105B10590F58D819E81AF81B885E1
:100CC00083359340A105B10548F08D819E81AF81A8
:100CD000B885843D9340A105B10568F18091BD02BE
:100CE0008830E0F48D819E81AF81B885E091BD02AE
:100CF000F0E0EE0FFF1FEC56FD4F928F818F809139
:100D0000BD028F5F8093BD020E945C056093C202AA
:100D10007093C3028093C4029093C50289819A8123
:100D2000AB81BC818093BE029093BF02A093C002AE
:100D3000B093C10202C01092BD0228960FB6F8947B
:100D4000DEBF0FBECDBFDF91CF9108950895CF9242
:100D5000DF92EF92FF920F931F93CF93DF938C015B
:100D6000EB01FC01C080D180E280F380C114D1048A
:100D7000E104F10469F50E945C05F8016083718368
:100D8000828393830E945C05F80100811181228196
:100D90003381601B710B820B930B9E0150E040E08E
:100DA0000E94A810D695C7956E01F12CE12C21E088
:100DB0006C157D058E059F0508F020E0822FDF91E0
:100DC000CF911F910F91FF90EF90DF90CF900895FA
:100DD0000E945C056C157D058E059F0560F2D2CFE3
:100DE000823049F0833021F0813039F4822F01C004
:100DF000862F81700895842FFCCF80E008950F9393
:100E00001F93CF93C82F0E945C0529E1C29FF00178
:100E10001124EC56FD4F058916892789308D601BFA
:100E2000710B820B930B21E06838734181059105AA
:100E300008F020E0822FCF911F910F9108959C011F
:100E40002E5E3240253F314090F09B012E5E3240B5
:100E5000253F314070F08C5D9540853F914058F4BE
:100E60006C5D7540653F714030F482E0089581E02B
:100E7000089583E0089580E008959C0193E081E067
:100E8000662311F091E083E0A9014E5E5240453F98
:100E9000514060F0273D86E0380728F02B3C384071
:100EA00020F4892F089582E0089580E00895662354
:100EB00019F0642F0C94290460E0FCCF8F929F926C
:100EC000AF92BF920F931F93CF93DF93CDB7DEB74F
:100ED000A1970FB6F894DEBF0FBECDBF19A2423066
:100EE00008F44AE08E010F5D1F4F842E912CB12C27
:100EF000A12CA50194010E94A810E62FB901CA01F6
:100F0000EA3044F5E05DD801EE938D01232B242BCC
:100F1000252B79F790E080E0109769F0FD010190B2
:100F20000020E9F73197AF014A1B5B0BBD0184E458
:100F300092E00E94DB04A1960FB6F894DEBF0FBECC
:100F4000CDBFDF91CF911F910F91BF90AF909F9038
:100F50008F900895E95CD7CF42E050E060E371E004
:100F600084E492E00C94DB04CF92DF92EF92FF9244
:100F7000CF93DF936C01990FEE08FF08F7FE1DC0B9
:100F80006DE284E492E00E94B902EC0166277727C3
:100F9000CB016C197D098E099F094AE00E945E070A
:100FA000C80FD91F0E94AC078C0F9D1FDF91CF91F6
:100FB000FF90EF90DF90CF9008954AE0C701B6010F
:100FC0000E945E07EC01EECF1F920F920FB60F92B8
:100FD00011248F939F938091E1009091E100937F82
:100FE0009093E10083FF0FC01092E90091E090938D
:100FF000EB001092EC0092E39093ED0010928E01C2
:1010000098E09093F00082FF22C093E09093E90073
:101010009091F200992319F09AE39093E80090914F
:101020004201992341F090914201915090934201E5
:10103000911101C05D9890918D01992341F090919B
:101040008D01915090938D01911101C0289884FFDA
:1010500018C08091E2008E7E81608093E2008091D2
:10106000E1008F7E8093E100809143018E7E80615C
:10107000809343019F918F910F900FBE0F901F900F
:10108000189580FFF7CF8091E2008E7E806180937B
:10109000E2008091E1008E7E8093E1008091430127
:1010A0008E7E8160E5CF1F920F920FB60F921124B2
:1010B000CF92DF92EF92FF920F931F932F933F9364
:1010C0004F935F936F937F938F939F93AF93BF9350
:1010D000EF93FF93CF93DF93CDB7DEB76C97DEBF6F
:1010E000CDBF1092E9008091E80083FF25C068E041
:1010F000CE0145960E94AC0282EF8093E8008D8974
:1011000087FF39C09091E80090FFFCCF982F907630
:1011100009F034C19E894F89588D2F89F88C91111F
:1011200031C0803861F5809144018093F1001092C4
:10113000F1008EEF8093E8006C960FB6F894DEBF56
:101140000FBECDBFDF91CF91FF91EF91BF91AF91D6
:101150009F918F917F916F915F914F913F912F91CF
:101160001F910F91FF90EF90DF90CF900F900FBEE7
:101170000F901F9018959EEF9093E800C7CF1092A4
:10118000F100D5CF913059F48111D3CF41305105C1
:1011900081F6809144018D7F80934401CACF9330C2
:1011A00049F48111C6CF4130510519F680914401AF
:1011B0008260F2CF953041F48091E80080FFFCCF4F
:1011C00020682093E300B5CF963009F0A9C00B8DBD
:1011D0001C8D22E01092E9001092400110923F0114
:1011E000F2122EC010923E0110923D010E947B022D
:1011F0001F8299E09983FA8291E09E8390EA988712
:101200009AEF998720913F0130914001275F3F4F2E
:101210003C832B838D831092E90010924001109241
:101220003F0110933E0100933D0149E050E0BE01B3
:101230006F5F7F4F80E00E9455020E947B0279CF52
:1012400010933E0100933D010E94E001DC011296E3
:101250000D911C910115110509F451C1D801ED91B1
:10126000FC910480F581E02DBE016B5E7F4FC801CB
:101270000995009709F03EC1F80100851185EACF74
:10128000F3E0FF120EC08F89882309F440C082303A
:1012900061F440E86DE08BE491E00E94220281114C
:1012A00048CF81E28093EB0047CF813029F440E8BA
:1012B0006BE08FE391E0F1CF833099F70E94E0017A
:1012C000DC011296ED90FC908E010F5F1F4F6801BC
:1012D000E114F10479F0D701ED91FC910680F781DA
:1012E000E02DB801C7010995080F111DF701E08431
:1012F000F184EECFD8011C92F60101900020E9F7AD
:101300003197BF016C197D0940E0C601C6CF69E283
:1013100071E0FB01449150E080E80E94550209CF42
:10132000973009F4BECF983021F481E08093F1002A
:1013300000CF993009F0FDCE837009F0B2CFE8E11B
:10134000F1E081E031E096E32191222371F0809376
:10135000E9003093EB00DF0111972C912093EC0012
:101360009093ED008F5F873079F78EE78093EA00E6
:101370001092EA008F8980938E01DBCE8B8D9C8D3D
:101380001092E9001092400110923F0190933E01AB
:1013900080933D01898D811192C08E899D89913AFA
:1013A00049F4813209F07DCF47E050E064E071E01C
:1013B00080E0B3CF913209F074CF833269F48F8922
:1013C000988DB0E0A0E08093000190930101A0937C
:1013D0000201B0930301ADCE803269F48091E80040
:1013E00082FFFCCF67E084E091E00E94AC028BEFCB
:1013F0008093E8009ECE823209F09BCE8F89809345
:101400000B01EEEFFFE7859194918B3F9C4D51F1DD
:10141000E0E0F8E08091040190910501A0910601BF
:10142000B0910701803B9440A105B105F1F4809192
:101430000B0180FD1AC0EE3F8AE0F80789F587E7C7
:1014400097E791838083809160008093410188E1D8
:101450009BE00FB6F894A895809360000FBE909320
:10146000600067CEEEEFFAE0D5CF808191818737BB
:10147000974709F05ECEA8958091600088618093BF
:1014800060008091410180936000EE3F2AE0F20706
:1014900089F08091FE0A9091FF0A9183808349CE62
:1014A000808191818737980751F29093FF0A80934A
:1014B000FE0AC5CF1092FF0A1092FE0A3ACE0E9491
:1014C000E001DC0112960D911C910115110509F442
:1014D000E8CED801ED91FC910190F081E02DBE01A4
:1014E0006B5E7F4FC8010995811123CEF8010085FD
:1014F0001185EBCF181619060CF41BCED2CEF1E0F5
:10150000FF12BECE6DE271E004CF1F920F920FB6B4
:101510000F9211242F933F938F939F93AF93BF9379
:101520008091350190913601A0913701B091380139
:101530003091340123E0230F2D3758F50196A11D7A
:10154000B11D209334018093350190933601A0930F
:101550003701B09338018091390190913A01A091FF
:101560003B01B0913C010196A11DB11D8093390151
:1015700090933A01A0933B01B0933C01BF91AF918E
:101580009F918F913F912F910F900FBE0F901F90C1
:10159000189526E8230F0296A11DB11DD2CF1F92E8
:1015A0000F920FB60F9211242F933F934F935F9397
:1015B0006F937F938F939F93AF93BF93EF93FF931B
:1015C000E0911401F09115010995FF91EF91BF9100
:1015D000AF919F918F917F916F915F914F913F91CB
:1015E0002F910F900FBE0F901F9018951F920F9282
:1015F0000FB60F9211242F933F934F935F936F93E6
:101600007F938F939F93AF93BF93EF93FF93E0915B
:101610001201F09113010995FF91EF91BF91AF91E4
:101620009F918F917F916F915F914F913F912F91FA
:101630000F900FBE0F901F9018951F920F920FB62C
:101640000F9211242F933F934F935F936F937F9348
:101650008F939F93AF93BF93EF93FF93E09110010C
:10166000F09111010995FF91EF91BF91AF919F9179
:101670008F917F916F915F914F913F912F910F903B
:101680000FBE0F901F9018951F920F920FB60F92DA
:1016900011242F933F934F935F936F937F938F9377
:1016A0009F93AF93BF93EF93FF93E0910E01F0915F
:1016B0000F010995FF91EF91BF91AF919F918F918C
:1016C0007F916F915F914F913F912F910F900FBE3E
:1016D0000F901F9018951F920F920FB60F92112422
:1016E0002F933F934F935F936F937F938F939F932A
:1016F000AF93BF93EF93FF93E0910C01F0910D0135
:101700000995FF91EF91BF91AF919F918F917F913B
:101710006F915F914F913F912F910F900FBE0F905E
:101720001F9018951F920F920FB60F9211242F93AE
:101730003F934F936F937F938F939F93AF93BF93F9
:10174000EF93FF93809116018F5F809316018111B3
:1017500038C0E0E9F1E047818581411103C09085FF
:101760009923E9F090E03681232F30E0BC01621B21
:10177000730B161617064CF4442389F0240F311D01
:101780002817390764F4C9010AC0672B41F0408566
:10179000442329F0241B310982179307A4F386837D
:1017A0008681882349F09181A281B381848191113E
:1017B00031C09C91892B8C93399682E0E434F807F0
:1017C00051F6E0E9F1E0808187FD0FC080911601BC
:1017D000968198130AC0A281B3818481918191116D
:1017E0001DC09C91809589238C93399682E0E434C6
:1017F000F80749F7FF91EF91BF91AF919F918F91BA
:101800007F916F914F913F912F910F900FBE0F904D
:101810001F9018959C9180958923CDCF9C91892B01
:10182000E3CFE4E4F2E01382128288EE93E0A0E0DA
:10183000B0E084839583A683B78382E291E09183AD
:1018400080838FEF9FEF95878487E4E9F2E088E05B
:10185000808B118A128A138A148A158A168A178A2B
:10186000108E81A712A613A614A615A616A617A653
:1018700010AA11AA0895CF93DF9300D000D000D012
:10188000CDB7DEB7789484B5826084BD84B58160BD
:1018900084BD85B5826085BD85B5816085BD80913B
:1018A0006E00816080936E001092810080918100B3
:1018B00082608093810080918100816080938100AB
:1018C000809180008160809380008091910082608F
:1018D000809391008091910081608093910080912C
:1018E00090008160809390008091C100846080931B
:1018F000C1008091C10082608093C1008091C100CD
:1019000081608093C1008091C30081608093C30097
:101910008091C00082608093C0008091C20081608D
:101920008093C20080917A00846080937A008091D5
:101930007A00826080937A0080917A00816080933F
:101940007A0080917A00806880937A0010928E01EC
:1019500010924401109243018091D70081608093DE
:10196000D70080EA8093D80089B5806189BD89B5A8
:10197000826089BD09B400FEFDCF0E94C30480913E
:10198000D8008F7C80618093D8008091E000807FB8
:101990008093E0008091E1008E7E8093E1008DE0F5
:1019A0008093E200559A209A5D98289862E082E040
:1019B0000E94F80362E083E00E94F80362E087E09F
:1019C0000E94F80362E086E10E94F80362E087E18A
:1019D0000E94F8031092C00084E08093C10010922E
:1019E000C2001092C3001092C4001092D10082E88D
:1019F0008093D10080E480937200E0E9F1E08FEF02
:101A0000808311821382128217821086399622E017
:101A1000E434F207A9F710928F0185E10E947F0458
:101A20008AE00E947F048BE00E947F0484E10E9490
:101A30007F0488E00E947F0489E00E947F0485E0A3
:101A40000E947F0486E00E947F0483E10E947F045D
:101A50008CE00E947F0482E10E947F0466EA75E0C8
:101A600081E00E94680166E276E080E00E94680101
:101A700061E08DE00E94F8038FEF9FEF9093510299
:101A80008093500240E0242E40E0342E80E00E94FB
:101A9000FF0620E0882349F160919402709195023D
:101AA00085E491E00E9468059C01990F440B550B59
:101AB0002452344041095109AFEFB3E00E94EF10C6
:101AC00028E933E040E050E00E94CA1057FF03C00D
:101AD00020E030E0A901211584E0380741055105D7
:101AE00024F02FEF33E040E050E02093790180E0D4
:101AF0000E94FF0620E0882349F1609196027091D0
:101B0000970288E491E00E9468059C01990F440BBC
:101B1000550B2452344041095109AFEFB3E00E9404
:101B2000EF1028E933E040E050E00E94CA1057FF70
:101B300003C020E030E0A901211594E039074105F8
:101B4000510524F02FEF33E040E050E020937A017C
:101B500080E00E94FF06882309F463C28091980206
:101B60009091990260E00E943D0780937B0180E0A4
:101B70000E94FF0632E0A32E882341F080919A0252
:101B800090919B0260E00E943D07A82EA0927C01EC
:101B900080E00E94FF06882309F445C280919C02E0
:101BA00090919D0260E00E943D0780937D0180E05E
:101BB0000E94FF06882309F438C280919E0290910A
:101BC0009F0260E00E943D0780937E0180E00E94BA
:101BD000FF06882309F42BC28091A0029091A102F4
:101BE00060E00E943D0780937F0180E00E94FF0635
:101BF00012E0882341F08091A2029091A30260E05C
:101C00000E943D07182F1093800181E00E94FF067B
:101C100023E0C22E882359F06091BB027091BC0270
:101C20008091B9029091BA020E941F07C82EC092FB
:101C3000730181E00E94FF06882309F4FAC16091D4
:101C4000B7027091B8028091B5029091B6020E94DD
:101C50001F078093740181E00E94FF0693E0E92E44
:101C6000882341F08091B3029091B40261E00E9418
:101C70003D07E82EE092750181E00E94FF06BB243B
:101C8000B394882341F08091B1029091B20261E057
:101C90000E943D07B82EB092760181E00E94FF06B7
:101CA000882309F4C8C18091AF029091B00261E02D
:101CB0000E943D07F82EF092770181E00E94FF0616
:101CC00003E0882341F08091AD029091AE0261E083
:101CD0000E943D07082F0093780120E040E061E07A
:101CE000812F0E94F006D82E8093710121E040E000
:101CF00060E0812F0E94F006982E80936F0120E013
:101D000040E061E08A2D0E94F00680936D0121E0A1
:101D100040E060E08A2D0E94F00680936B0121E094
:101D200041E060E08C2D0E94F006182F809369013D
:101D300021E040E060E08C2D0E94F006C82E8093E8
:101D4000670121E040E060E08E2D0E94F006E82E61
:101D50008093650121E040E060E08B2D0E94F00659
:101D6000B82E8093630121E040E060E08F2D0E9457
:101D7000F006A82E8093610121E040E060E0802F12
:101D80000E94F006F82E80935F0187E10E94A10374
:101D9000E1E0EE83892B09F01E824E8040925D01C6
:101DA00086E10E94A10321E02D83892B09F01D8289
:101DB0004D8040925B0110936A01C09268010D2D25
:101DC000D1100DC0992009F439C160E273E08BE4B1
:101DD00091E00E94A70601E0811101C000E000939C
:101DE0007201E0926601A0926201F09260015E8051
:101DF00050925E016D8060925C01BB2009F427C1A6
:101E000068EE73E08FE491E00E94A70691E08111F3
:101E100001C090E090936E0190936C0144E6612FB5
:101E200085E10E9457076FEFC11004C065E01111F2
:101E300001C060E08AE00E9429044FEF602F8BE030
:101E40000E9457074FEF6E2D84E10E9457074FEF16
:101E50006F2D82E10E9457074FEF60916E0188E07D
:101E60000E9457074FEF60916C0189E00E9457076D
:101E70004FEF6E8183E10E9457074FEF6D818CE039
:101E80000E9457074FEF60916E0185E00E9457074F
:101E90004FEF60916C0186E00E9457074FEF6D8114
:101EA0008CE00E9457074FEF6E8183E10E94570735
:101EB0000E945C05209154013091550140915601DA
:101EC000509157012B013C01421A530A640A750ACA
:101ED000E8EE4E16E3E05E066104710408F4FFC00C
:101EE00020915301609354017093550180935601E2
:101EF0009093570181E082278093530160915301B1
:101F00008DE00E94CA0300916B0180906D010E94D8
:101F10005C0528EE33E040E050E00E94A810643FEA
:101F200071408105910508F4E9C080915901811142
:101F3000E5C08CE192E00E94CF020E94AC0780E1F4
:101F400092E00E94CF02812F90E00E94B40781E0CE
:101F500092E00E94CF028C2D90E00E94B40781EFA6
:101F600091E00E94CF028D2D90E00E94B4078CED8D
:101F700091E00E94CF02892D90E00E94B40781ED8C
:101F800091E00E94CF028E2D90E00E94B40783EC76
:101F900091E00E94CF028A2D90E00E94B40788EB66
:101FA00091E00E94CF028F2D90E00E94B4078AEA50
:101FB00091E00E94CF028B2D90E00E94B40789E946
:101FC00091E00E94CF02882D90E00E94B40787E83C
:101FD00091E00E94CF02802F90E00E94B40788E732
:101FE00091E00E94CF024E80842D90E00E94B407C1
:101FF0008BE691E00E94CF025D80852D90E00E94EB
:10200000B40789E591E00E94CF020E94AC0781E00D
:10201000809359012114310409F438CD0E94000045
:1020200035CD82E0A2CD83E0C0CD83E0CDCD83E08D
:10203000DACD83E00ECE83E0F82E3DCE10924B0138
:1020400010924C0110924D0110924E01C7CE80911A
:102050006D01882379F068EE73E08FE491E00E94CF
:10206000A70691E0811101C090E090936E0110925B
:102070006C01D4CE80916B01882369F010926E01BF
:1020800068EE73E08FE491E00E94A70691E0811171
:10209000C3CE90E0C1CE80916E01811104C08091C9
:1020A0006C01882359F068EE73E08FE491E00E94A0
:1020B000A706811103C010926E01D9CF80916E01E5
:1020C0008111ACCE80916C018111A8CE10924F018C
:1020D0001092500110925101109252019FCE62173E
:1020E00073078407950708F009CF60935401709334
:1020F0005501809356019093570100CF0E945C05D3
:1021000028EE33E040E050E00E94A810643F7140A8
:102110008105910508F07ECF80915901882309F44B
:1021200079CF1092590176CF97FB072E16F40094C1
:1021300007D077FD09D00E94FA1007FC05D03EF4C5
:10214000909581959F4F0895709561957F4F089563
:10215000A1E21A2EAA1BBB1BFD010DC0AA1FBB1FAB
:10216000EE1FFF1FA217B307E407F50720F0A21B1D
:10217000B30BE40BF50B661F771F881F991F1A948A
:1021800069F760957095809590959B01AC01BD01B4
:10219000CF010895052E97FB1EF400940E94E110D4
:1021A00057FD07D00E94A81007FC03D04EF40C94F2
:1021B000E11050954095309521953F4F4F4F5F4F1F
:1021C000089590958095709561957F4F8F4F9F4FA3
:1021D0000895EE0FFF1F0590F491E02D09940E94E1
:1021E0000E11A59F900DB49F900DA49F800D911D81
:1021F00011240895AA1BBB1B51E107C0AA1FBB1FD6
:10220000A617B70710F0A61BB70B881F991F5A9582
:10221000A9F780959095BC01CD010895A29FB001CA
:10222000B39FC001A39F700D811D1124911DB29F0A
:0E223000700D811D1124911D0895F894FFCFAB
:10223E00FFFFFFFF00E1000000000000A606A6065B
:10224E00A606A606A606FF00C180810000000000BB
:10225E000000B902DB04F502EA023B03F9021703A0
:04226E000D0A000055
:00000001FF
