:100000000C94D4000C949A0C0C94730C0C944C0C1F
:100010000C94250C0C94FC000C94FC000C94FE0B2E
:100020000C94FC000C94FC000C94BB080C942A0962
:100030000C94FC000C94FC000C94FC000C94FC0050
:100040000C94FC000C94FC000C94FC000C94FC0040
:100050000C94FC000C94FC000C94FC000C94B40B6D
:100060000C94FC000C94820B0C945C0B0C94FC0024
:100070000C94FC000C94FC000C94FC000C94FC0010
:100080000C94FC000C94FC000C94FC000C94FC0000
:100090000C94FC000C94FC000C94C10C0C94FC001F
:1000A0000C94FC000C94FC000C94FC00000000007C
:1000B000240027002A002D0030000000000023004B
:1000C000260029002C002F000000000200090F006C
:1000D00000030401000C000000000000000000000C
:1000E00000000000000000080B00020202000009EE
:1000F0000400000102020000052400100105240193
:1001000001010424020605240600010705810310ED
:10011000004009040100020A000000070502024035
:1001200000000705830240000004030904120100D7
:1001300002EF020140412337800001010203014127
:10014000726475696E6F204C4C430041726475692E
:100150006E6F204D6963726F0004080201104080C9
:10016000401020408040800802040180402010029E
:1001700001108010204040200000000025002800D1
:100180002B002E00310004040404040304050202C1
:100190000202040302020202060606060606040420
:1001A000020202040400400D11241FBECFEFDAE06A
:1001B000DEBFCDBF11E0A0E0B1E0ECE8F5E202C0A7
:1001C00005900D92A434B107D9F723E0A4E4B1E07F
:1001D00001C01D92AD3CB207E1F710E0C4EDD0E0E4
:1001E00004C02197FE010E949012C33DD107C9F7B8
:1001F0000E94920D0C94C4120C940000E82FF0E0C1
:10020000EE0FFF1FE35FFE4F718360838230D9F0F2
:1002100028F4882341F0813071F008958330D9F0BB
:10022000843009F10895809169008C7F816080930A
:100230006900E89A089580916900837F84608093C3
:100240006900E99A0895809169008F7C80618093AC
:100250006900EA9A0895809169008F7380648093A1
:100260006900EB9A089580916A008F7C8061809389
:100270006A00EE9A0895FC018091F801882311F13B
:100280003FB7F89482E08093E9002091F200822F3A
:1002900090E01816190614F481E090E0882339F0F4
:1002A000289A44E64093F7014091F10040832223CD
:1002B00039F02091F200211103C02BE62093E800D1
:1002C0003FBF08958FEF9FEF08952FB7F89483E015
:1002D0008093E9009091E800892F807295FF04C017
:1002E0009091F20080E4891B2FBF08958091EF0167
:1002F00081110DC082E08093EB0184E08093EC01DA
:100300001092EE011092ED0181E08093EF018BEEEF
:1003100091E0089540914F015091500120914D017D
:1003200030914E0142175307B4F49091E800957054
:10033000E1F39091E80092FD19C08093F100809163
:100340004F019091500101968F739927892B19F4D1
:100350008EEF8093E80080914F01909150010196BB
:100360009093500180934F0181E0089580E00895BB
:10037000EF92FF920F931F93CF93DF93F82E192FD5
:10038000E62E042F81E0860F880F0E948A0183E009
:100390000E948A01CF2DD12FEC0EFD2EF11CCE151F
:1003A000DF05B9F007FF13C0FE0184910E948A01A6
:1003B000182F80E00E948A01812321968111EFCFBE
:1003C000DF91CF911F910F91FF90EF900895888159
:1003D000EDCF81E0F5CFDF92EF92FF920F931F9365
:1003E000CF93DF93D82E8A01EB017B01E40EF51E3B
:1003F000CE15DF0559F0D7FE12C0FE0184910E9490
:100400008A0121968111F4CF0FEF1FEFC801DF9110
:10041000CF911F910F91FF90EF90DF900895888109
:10042000EECF0F931F93CF93DF931F92CDB7DEB71D
:1004300082E0898342E450E067EE70E080E80E9449
:10044000EB010E947601DC0112960D911C910115C1
:10045000110589F0D801ED91FC910280F381E02D26
:10046000BE016F5F7F4FC801099597FD04C0F80179
:1004700000851185ECCF89810F90DF91CF911F917D
:100480000F910895615030F02091F100FC0120831C
:100490000196F8CF289A84E68093F7010895AF92E9
:1004A000BF92CF92DF92EF92FF920F931F93CF9361
:1004B000DF936C017B018B01040F151FEB015E01C3
:1004C000AE18BF08C017D10759F06991D601ED9158
:1004D000FC910190F081E02DC6010995892B79F7F7
:1004E000C501DF91CF911F910F91FF90EF90DF90A9
:1004F000CF90BF90AF900895FC01538D448D252F70
:1005000030E0842F90E0821B930B541710F0CF96AD
:10051000089501970895FC01918D828D981761F0DF
:10052000A28DAE0FBF2FB11D5D968C91928D9F5FF6
:100530009F73928F90E008958FEF9FEF0895FC01D5
:10054000918D828D981731F0828DE80FF11D858D88
:1005500090E008958FEF9FEF0895FC01918D228D1B
:10056000892F90E0805C9F4F821B91098F739927A0
:1005700008958EEA92E00E94AD0221E0892B09F4F1
:1005800020E0822F089580E090E0892B29F00E94DE
:10059000B90281110C9400000895FC01A48DA80FEC
:1005A000B92FB11DA35ABF4F2C91848D90E00196B5
:1005B0008F739927848FA689B7892C93A089B189D5
:1005C0008C9182748C93938D848D981306C00288CD
:1005D000F389E02D80818F7D80830895EF92FF92D3
:1005E0000F931F93CF93DF93EC0181E0888F9B8D56
:1005F0008C8D981319C0E889F989808185FF14C012
:100600009FB7F894EE89FF896083E889F989808132
:10061000827480839FBF81E090E0DF91CF911F9132
:100620000F91FF90EF900895F62E0B8D10E00F5F65
:100630001F4F0F731127E02E8C8D8E110CC00FB63B
:1006400007FCFACFE889F989808185FFF5CFCE01D3
:100650000E94CD02F1CFEB8DEC0FFD2FF11DE35A7F
:10066000FF4FF0829FB7F8940B8FEA89FB89808156
:100670008062CFCFCF93DF93EC01888D8823B9F0D0
:10068000AA89BB89E889F9898C9185FD03C080819D
:1006900086FD0DC00FB607FCF7CF8C9185FFF2CF1A
:1006A000808185FFEDCFCE010E94CD02E9CFDF91A1
:1006B000CF910895CF93DF931F92CDB7DEB76983B3
:1006C000DC01ED91FC910280F381E02D41E050E0EE
:1006D000BE016F5F7F4F09950F90DF91CF91089515
:1006E00083E08093E9008091F200882319F08AE387
:1006F0008093E80008950E94650190E00895CF93EB
:10070000DF931F92CDB7DEB7FC018485958597FDF9
:1007100008C02FEF3FEF358724870F90DF91CF91EF
:100720000895CE0101960E943B01019719F4898139
:1007300090E0F3CF8FEF9FEFF0CF0F931F93CF9306
:10074000DF931F92CDB7DEB78C01FC0184859585C0
:1007500097FF0BC0CE0101960E943B01019771F4F7
:10076000898190E0F80195878487F80184859585D3
:100770000F90DF91CF911F910F9108958FEF9FEF11
:10078000F1CFFC018485958597FD0BC09FB7F89448
:1007900082E08093E9008091F2009FBF90E0019693
:1007A00008959FB7F89482E08093E9008091F20069
:1007B0009FBF90E0089581508F3008F047C0E82F28
:1007C000F0E0EB51FC4F0C94901202040604F40389
:1007D000FA03FE0326042604260409040F04130466
:1007E00017041D0426042104809180008F778093D4
:1007F00080000895809180008F7DF9CF80918000E6
:10080000877FF5CF84B58F7784BD089584B58F7DBC
:10081000FBCF809190008F77809390000895809116
:1008200090008F7DF9CF80919000877FF5CF8091E8
:10083000C0008F778093C00008958091C0008F7DA5
:10084000F9CF8091C200877F8093C2000895CF9333
:10085000DF93282F30E0F901E853FF4F8491F9012D
:10086000E75AFE4FD491F901EA57FE4FC491CC23C9
:10087000A1F081110E94DB03EC2FF0E0EE0FFF1FCF
:10088000E654FF4FA591B491EC91ED2381E090E007
:1008900009F480E0DF91CF91089580E090E0FACFF5
:1008A0001F93CF93DF93282F30E0F901E853FF4FD8
:1008B0008491F901E75AFE4FD491F901EA57FE4FAE
:1008C000C491CC23A9F0162F81110E94DB03EC2FD9
:1008D000F0E0EE0FFF1FE858FE4FA591B4918FB7DF
:1008E000F894EC91111108C0D095DE23DC938FBFF2
:1008F000DF91CF911F910895DE2BF8CFCF93DF9337
:1009000090E0FC01E75AFE4F24918A579E4FFC016C
:1009100084918823C9F090E0880F991FFC01E45569
:10092000FF4FA591B491FC01E858FE4FC591D491B9
:1009300061110DC09FB7F8948C91209582238C9300
:100940008881282328839FBFDF91CF91089562304B
:1009500051F49FB7F8943C91822F809583238C9318
:10096000E8812E2BEFCF8FB7F894EC912E2B2C93A0
:100970008FBFEACFCF93EAEFF1E0AFEF90E02081B5
:1009800087FF05C027FF47C0AF3F41F406C082176D
:1009900009F441C0AF3F11F427FDA92F9F5F39969D
:1009A000943169F787FD3AC0AF3F09F437C0C82FCB
:1009B00089E0A802D0011124A650BE4FCC9320910B
:1009C000F90111962C9311978C2F0C2E000C990B7A
:1009D000FC01EA57FE4FE491F0E0EE0FFF1FE858EC
:1009E000FE4F4591549113965C934E931297FC01E0
:1009F000E75AFE4FE4911496EC93149715966C9376
:100A000060E0211161E08C2F0E94500461E08C2F86
:100A1000CF910C947E04658387FDBCCFCF91089560
:100A2000CF93C82F60E00E94BA04EAEFF1E090E0B3
:100A300080E02081C2130DC029E0289FF001299F8A
:100A4000F00D1124E650FE4F84E187838087CF911B
:100A50000895019639968431910559F7F8CF3FB73B
:100A6000F8948091490190914A01A0914B01B09175
:100A70004C0126B5A89B05C02F3F19F00196A11D7A
:100A8000B11D3FBFBA2FA92F982F8827BC01CD01D8
:100A9000620F711D811D911D42E0660F771F881F37
:100AA000991F4A95D1F70895CF92DF92EF92FF9266
:100AB0000E942F056B017C010E942F056C197D0996
:100AC0008E099F09683E734081059105A8F3FF9048
:100AD000EF90DF90CF9008958F929F92AF92BF9248
:100AE000CF92DF92EF92FF920F931F93CF93DF93FA
:100AF0006C017B018A0180910B01882309F458C0A5
:100B00008091F801882309F453C08091530180FF3C
:100B100005C08091E00082608093E000E801B12C84
:100B20008AEFA82E93E0892E2AE3922E209711F4C3
:100B3000BB20B9F10E946501811106C0AA94AA20C8
:100B4000B9F10E945405F2CF8C171D0611F00CF07C
:100B50008C2F9FB7F8948092E9002091E80025FD42
:100B600002C09FBFE3CF282F30E0C21BD30BF70199
:100B7000815020F041914093F100FACFE20EF31E34
:100B8000BB2021F09092E800B12CEBCF8091E800DF
:100B900085FDE7CF9092E800BB24B394209709F33A
:100BA000F3CF5D9A84E680935201101611063CF053
:100BB00081E090E0F6019383828310E000E0C801B9
:100BC000DF91CF911F910F91FF90EF90DF90CF9029
:100BD000BF90AF909F908F9008952FB7F894609139
:100BE00045017091460180914701909148012FBFC6
:100BF00008950F931F93CF93DF93EC018B010E9415
:100C0000ED0524E630E040E050E00E944F126233F0
:100C1000710581059105C8F08A81811116C028816E
:100C20003981C801821B930B64E170E00E943B1282
:100C3000620F731F7983688381E08A838881998139
:100C4000DF91CF911F910F9108950E94ED0524E649
:100C500030E040E050E00E944F12623371058105A0
:100C6000910560F78A81882349F31A82E7CFCF93F1
:100C7000DF93CDB7DEB728970FB6F894DEBF0FBE6F
:100C8000CDBF0E942F0569837A838B839C838981E2
:100C90009A81AB81BC814091AC035091AD036091CE
:100CA000AE037091AF03841B950BA60BB70B8D831E
:100CB0009E83AF83B8878D819E81AF81B8858D3B40
:100CC0009240A105B105F0F18D819E81AF81B8857B
:100CD00088399840A105B105A8F58D819E81AF8125
:100CE000B88583359340A105B10548F08D819E817B
:100CF000AF81B885843D9340A105B10508F180918D
:100D0000AB038830F8F48D819E81AF81B885E09186
:100D1000AB03F0E0EE0FFF1FE556FC4F918380839D
:100D20008091AB038F5F8093AB030E94ED056093CE
:100D3000B0037093B1038093B2039093B30302C0E6
:100D40001092AB0389819A81AB81BC818093AC0303
:100D50009093AD03A093AE03B093AF0328960FB664
:100D6000F894DEBF0FBECDBFDF91CF910895CF9332
:100D7000DF93CDB7DEB728970FB6F894DEBF0FBE6E
:100D8000CDBF0E942F0569837A838B839C838981E1
:100D90009A81AB81BC814091C5035091C60360919B
:100DA000C7037091C803841B950BA60BB70B8D83EB
:100DB0009E83AF83B8878D819E81AF81B8858D3B3F
:100DC0009240A105B105D8F18D819E81AF81B88592
:100DD00088399840A105B10590F58D819E81AF813C
:100DE000B88583359340A105B10548F08D819E817A
:100DF000AF81B885843D9340A105B10568F180912C
:100E0000C4038830E0F48D819E81AF81B885E09184
:100E1000C403F0E0EE0FFF1FE556FC4F928F818F69
:100E20008091C4038F5F8093C4030E94ED0560939B
:100E3000C9037093CA038093CB039093CC03898139
:100E40009A81AB81BC818093C5039093C603A09324
:100E5000C703B093C80302C01092C40328960FB60C
:100E6000F894DEBF0FBECDBFDF91CF910895CF9331
:100E7000DF93CDB7DEB728970FB6F894DEBF0FBE6D
:100E8000CDBF0E942F0569837A838B839C838981E0
:100E90009A81AB81BC814091600150916101609168
:100EA000620170916301841B950BA60BB70B8D83B8
:100EB0009E83AF83B8878D819E81AF81B8858D3B3E
:100EC0009240A105B105D8F08D819E81AF81B88592
:100ED00088399840A105B10590F48D819E81AF813C
:100EE000B88590935F0180935E010E94ED05609349
:100EF0006401709365018093660190936701898115
:100F00009A81AB81BC818093600190936101A09331
:100F10006201B093630128960FB6F894DEBF0FBE4E
:100F2000CDBFDF91CF9108950895CF92DF92EF92D8
:100F3000FF920F931F93CF93DF938C01EB01FC0182
:100F4000C080D180E280F380C114D104E104F104B7
:100F500069F50E94ED05F8016083718382839383B4
:100F60000E94ED05F8010081118122813381601B0F
:100F7000710B820B930B9E0150E040E00E944F12D8
:100F8000D695C7956E01F12CE12C21E06C157D05FD
:100F90008E059F0508F020E0822FDF91CF911F91F1
:100FA0000F91FF90EF90DF90CF9008950E94ED0594
:100FB0006C157D058E059F0560F2D2CF21E030E0F3
:100FC000A90102C0440F551F8A95E2F7CA0120917A
:100FD000B401662321F0822B8093B401089580959B
:100FE0008223FACF0F931F93CF93DF93D82F61E023
:100FF000809155010E94500404E711E0C0E0809107
:10100000560190915701D8016D918D01DC01ED9150
:10101000FC910190F081E02D0995CF5FDC13EFCFBB
:101020008091560190915701DC01ED91FC91068071
:10103000F781E02D099583E290E00197F1F760E0F8
:10104000809155010E9450040E94ED056093B90102
:101050007093BA018093BB019093BC01DF91CF9153
:101060001F910F910895482FE4E7F1E020E08FEF02
:101070009FEF3191832738E0BC0161707727969507
:101080008795672B21F051E0852750EA952731504D
:1010900099F72F5F4213EDCF0895823049F08330E6
:1010A00021F0813039F4822F01C0862F817008959C
:1010B000842FFCCF80E008950F931F93CF93C82F08
:1010C0000E94ED0529E1C29FF0011124E556FC4F75
:1010D000058916892789308D601B710B820B930B54
:1010E00021E0683873418105910508F020E0822FE6
:1010F000CF911F910F9108959C012E5E3240253FA4
:10110000314090F09B012E5E3240253F314070F01F
:101110008C5D9540853F914058F46C5D7540653F0E
:10112000714030F482E0089581E0089583E00895ED
:1011300080E008959C0193E081E0662311F091E046
:1011400083E0A9014E5E5240453F514060F0273D8B
:1011500086E0380728F02B3C384020F4892F08958A
:1011600082E0089580E00895662319F0642F0C94BE
:10117000BA0460E0FCCF1F920F920FB60F921124B9
:101180008F939F938091E1009091E100937F9093E2
:10119000E10083FF0FC01092E90091E09093EB0013
:1011A0001092EC0092E39093ED001092F80198E019
:1011B0009093F00082FF22C093E09093E900909119
:1011C000F200992319F09AE39093E800909152016C
:1011D000992341F0909152019150909352019111B5
:1011E00001C05D989091F701992341F09091F7012A
:1011F00091509093F701911101C0289884FF18C075
:101200008091E2008E7E81608093E2008091E10017
:101210008F7E8093E100809153018E7E8061809368
:1012200053019F918F910F900FBE0F901F901895B3
:1012300080FFF7CF8091E2008E7E80618093E20094
:101240008091E1008E7E8093E100809153018E7E3B
:101250008160E5CF1F920F920FB60F921124CF92AB
:10126000DF92EF92FF920F931F932F933F934F9331
:101270005F936F937F938F939F93AF93BF93EF93FE
:10128000FF93CF93DF93CDB7DEB76C97DEBFCDBFB3
:101290001092E9008091E80083FF25C068E0CE014C
:1012A00045960E94420282EF8093E8008D8987FF75
:1012B00039C09091E80090FFFCCF982F907609F00C
:1012C00034C19E894F89588D2F89F88C911131C076
:1012D000803861F5809154018093F1001092F10003
:1012E0008EEF8093E8006C960FB6F894DEBF0FBEC9
:1012F000CDBFDF91CF91FF91EF91BF91AF919F91C2
:101300008F917F916F915F914F913F912F911F919D
:101310000F91FF90EF90DF90CF900F900FBE0F9046
:101320001F9018959EEF9093E800C7CF1092F100A0
:10133000D5CF913059F48111D3CF4130510581F689
:10134000809154018D7F80935401CACF933049F42A
:101350008111C6CF4130510519F680915401826048
:10136000F2CF953041F48091E80080FFFCCF2068F7
:101370002093E300B5CF963009F0A9C00B8D1C8DEA
:1013800022E01092E9001092500110924F01F212E7
:101390002EC010924E0110924D010E9411021F8228
:1013A00099E09983FA8291E09E8390EA98879AEF78
:1013B000998720914F0130915001275F3F4F3C8327
:1013C0002B838D831092E9001092500110924F01EF
:1013D00010934E0100934D0149E050E0BE016F5F54
:1013E0007F4F80E00E94EB010E94110279CF1093A1
:1013F0004E0100934D010E947601DC0112960D9181
:101400001C910115110509F451C1D801ED91FC9110
:101410000480F581E02DBE016B5E7F4FC801099508
:10142000009709F03EC1F80100851185EACFF3E08D
:10143000FF120EC08F89882309F440C0823061F406
:1014400040E86DE08BE491E00E94B801811148CF43
:1014500081E28093EB0047CF813029F440E86BE0D4
:101460008FE391E0F1CF833099F70E947601DC01A0
:101470001296ED90FC908E010F5F1F4F6801E114F2
:10148000F10479F0D701ED91FC910680F781E02D10
:10149000B801C7010995080F111DF701E084F18417
:1014A000EECFD8011C92F60101900020E9F73197A8
:1014B000BF016C197D0940E0C601C6CF69E271E049
:1014C000FB01449150E080E80E94EB0109CF973086
:1014D00009F4BECF983021F481E08093F10000CF71
:1014E000993009F0FDCE837009F0B2CFE9E1F1E067
:1014F00081E031E096E32191222371F08093E900AD
:101500003093EB00DF0111972C912093EC00909326
:10151000ED008F5F873079F78EE78093EA001092B5
:10152000EA008F898093F801DBCE8B8D9C8D109221
:10153000E9001092500110924F0190934E01809358
:101540004D01898D811192C08E899D89913A49F40E
:10155000813209F07DCF47E050E064E071E080E047
:10156000B3CF913209F074CF833269F48F89988DAB
:10157000B0E0A0E08093000190930101A0930201EC
:10158000B0930301ADCE803269F48091E80082FF10
:10159000FCCF67E084E091E00E9442028BEF8093F1
:1015A000E8009ECE823209F09BCE8F8980930B019A
:1015B000EEEFFFE7859194918B3F9C4D51F1E0E078
:1015C000F8E08091040190910501A0910601B0918D
:1015D0000701803B9440A105B105F1F480910B0116
:1015E00080FD1AC0EE3F8AE0F80789F587E797E7A4
:1015F00091838083809160008093510188E19BE01A
:101600000FB6F894A895809360000FBE9093600089
:1016100067CEEEEFFAE0D5CF80819181873797478B
:1016200009F05ECEA895809160008861809360008B
:101630008091510180936000EE3F2AE0F20789F02B
:101640008091FE0A9091FF0A9183808349CE808128
:1016500091818737980751F29093FF0A8093FE0A91
:10166000C5CF1092FF0A1092FE0A3ACE0E94760170
:10167000DC0112960D911C910115110509F4E8CEBB
:10168000D801ED91FC910190F081E02DBE016B5EDF
:101690007F4FC8010995811123CEF801008511857E
:1016A000EBCF181619060CF41BCED2CEF1E0FF12C8
:1016B000BECE6DE271E004CF1F920F920FB60F9273
:1016C00011242F933F934F935F936F937F938F9347
:1016D0009F93AF93BF93EF93FF938EEA92E00E94A4
:1016E000CD02FF91EF91BF91AF919F918F917F912B
:1016F0006F915F914F913F912F910F900FBE0F907F
:101700001F9018951F920F920FB60F9211242F93CE
:101710008F939F93EF93FF93E091BE02F091BF02EE
:101720008081E091C402F091C50282FD1BC09081CE
:101730008091C7028F5F8F732091C802821741F09A
:10174000E091C702F0E0E255FD4F958F8093C7020C
:10175000FF91EF919F918F912F910F900FBE0F905E
:101760001F9018958081F4CF1F920F920FB60F92A1
:1017700011242F933F938F939F93AF93BF938091A7
:10178000450190914601A0914701B09148013091E7
:10179000440123E0230F2D3758F50196A11DB11DFB
:1017A000209344018093450190934601A093470103
:1017B000B09348018091490190914A01A0914B0159
:1017C000B0914C010196A11DB11D809349019093E8
:1017D0004A01A0934B01B0934C01BF91AF919F91EF
:1017E0008F913F912F910F900FBE0F901F901895E2
:1017F00026E8230F0296A11DB11DD2CF1F920F9292
:101800000FB60F9211242F933F934F935F936F93D3
:101810007F938F939F93AF93BF93EF93FF93E09149
:101820001501F09116010995FF91EF91BF91AF91CC
:101830009F918F917F916F915F914F913F912F91E8
:101840000F900FBE0F901F9018951F920F920FB61A
:101850000F9211242F933F934F935F936F937F9336
:101860008F939F93AF93BF93EF93FF93E0911301F7
:10187000F09114010995FF91EF91BF91AF919F9164
:101880008F917F916F915F914F913F912F910F9029
:101890000FBE0F901F9018951F920F920FB60F92C8
:1018A00011242F933F934F935F936F937F938F9365
:1018B0009F93AF93BF93EF93FF93E0911101F0914A
:1018C00012010995FF91EF91BF91AF919F918F9177
:1018D0007F916F915F914F913F912F910F900FBE2C
:1018E0000F901F9018951F920F920FB60F92112410
:1018F0002F933F934F935F936F937F938F939F9318
:10190000AF93BF93EF93FF93E0910F01F09110011C
:101910000995FF91EF91BF91AF919F918F917F9129
:101920006F915F914F913F912F910F900FBE0F904C
:101930001F9018951F920F920FB60F9211242F939C
:101940003F934F935F936F937F938F939F93AF9347
:10195000BF93EF93FF93E0910D01F0910E01099574
:10196000FF91EF91BF91AF919F918F917F916F9177
:101970005F914F913F912F910F900FBE0F901F904D
:1019800018951F920F920FB60F9211242F933F9329
:101990004F936F937F938F939F93AF93BF93EF93E7
:1019A000FF93809117018F5F80931701811138C0D9
:1019B000EAEFF1E047818581411103C090859923C9
:1019C000E9F090E03681232F30E0BC01621B730BFD
:1019D000161617064CF4442389F0240F311D2817DE
:1019E000390764F4C9010AC0672B41F040854423DC
:1019F00029F0241B310982179307A4F3868386817B
:101A0000882349F09181A281B3818481911131C0F1
:101A10009C91892B8C93399682E0EE3AF80751F627
:101A2000EAEFF1E0808187FD0FC080911701968178
:101A300098130AC0A281B3818481918191111DC044
:101A40009C91809589238C93399682E0EE3AF80731
:101A500049F7FF91EF91BF91AF919F918F917F9146
:101A60006F914F913F912F910F900FBE0F901F904C
:101A700018959C9180958923CDCF9C91892BE3CF9C
:101A8000EEEAF2E01382128288EE93E0A0E0B0E08A
:101A900084839583A683B78323E231E03183208357
:101AA0002DEC30E0358724872CEC30E03787268713
:101AB00028EC30E0318B208B29EC30E0338B228B0B
:101AC0002AEC30E0358B248B2EEC30E0378B268BE4
:101AD000118E128E138E148EEBE4F3E013821282B9
:101AE00084839583A683B78385E391E09183808384
:101AF0008FEF9FEF95878487EBE9F3E088E0808B99
:101B0000118A128A138A148A158A168A178A108EE5
:101B100081A712A613A614A615A616A617A610AA84
:101B200011AA0895789484B5826084BD84B58160DB
:101B300084BD85B5826085BD85B5816085BD809198
:101B40006E00816080936E00109281008091810010
:101B50008260809381008091810081608093810008
:101B600080918000816080938000809191008260EC
:101B70008093910080919100816080939100809189
:101B800090008160809390008091C1008460809378
:101B9000C1008091C10082608093C1008091C1002A
:101BA00081608093C1008091C30081608093C300F5
:101BB0008091C00082608093C0008091C2008160EB
:101BC0008093C20080917A00846080937A00809133
:101BD0007A00826080937A0080917A00816080939D
:101BE0007A0080917A00806880937A001092F801E0
:101BF00010925401109253018091D700816080931C
:101C0000D70080EA8093D80089B5806189BD89B505
:101C1000826089BD09B400FEFDCF0E945405809109
:101C2000D8008F7C80618093D8008091E000807F15
:101C30008093E0008091E1008E7E8093E1008DE052
:101C40008093E200559A209A5D98289862E082E09D
:101C50000E947E0462E083E00E947E0460E087E0F0
:101C60000E947E0462E086E10E947E0462E087E1D9
:101C70000E947E041092C00084E08093C100109204
:101C8000C2001092C3001092C4001092D10082E8EA
:101C90008093D10080E480937200EAEFF1E08FEF4F
:101CA000808311821382128217821086399622E075
:101CB000EE3AF207A9F71092F90185E10E941005AA
:101CC0008AE00E9410058BE00E94100584E10E94CA
:101CD000100588E00E94100589E00E94100585E04B
:101CE0000E94100586E00E94100583E10E94100505
:101CF0008CE00E94100582E10E94100567E376E007
:101D000081E00E94FE0067EB76E080E00E94FE002A
:101D100067E377E084E00E94FE0061E08DE00E94CE
:101D20007E048FEF9FEF90935803809357038EEAC2
:101D300092E09093570180935601E091BE02F0919A
:101D4000BF0282E08083E091BA02F091BB02108270
:101D5000E091BC02F091BD0287E680831092C6023A
:101D6000E091C202F091C30286E08083E091C0025C
:101D7000F091C102808180618083E091C002F09186
:101D8000C102808188608083E091C002F091C1022D
:101D9000808180688083E091C002F091C1028081DF
:101DA0008F7D808384E190E0A0E0B0E08093B50176
:101DB0009093B601A093B701B093B80184E08093EB
:101DC000550161E00E947E0460E084E00E945004BE
:101DD0001092BE011092BD0168E9C62E63E0D62EB6
:101DE000E12CF12CD2E000E010E080E00E945C08E1
:101DF00020E0882339F160919B0370919C0388E572
:101E000091E00E94F9059C01990F440B550B245257
:101E1000344041095109AFEFB3E00E949612A70187
:101E200096010E94711257FF03C020E030E0A90123
:101E3000211584E038074105510524F02FEF33E0E8
:101E400040E050E02093E30180E00E945C0820E045
:101E5000882339F160919D0370919E038BE591E099
:101E60000E94F9059C01990F440B550B24523440F4
:101E700041095109AFEFB3E00E949612A701960104
:101E80000E94711257FF03C020E030E0A901211524
:101E900094E039074105510524F02FEF33E040E08D
:101EA00050E02093E40180E00E945C08882309F45C
:101EB0003CC280919F039091A00360E00E949A0829
:101EC0008093E50180E00E945C0852E0A52E882303
:101ED00041F08091A1039091A20360E00E949A08D2
:101EE000A82EA092E60180E00E945C08882309F4F5
:101EF0001EC28091A3039091A40360E00E949A08FF
:101F00008093E70180E00E945C08882309F411C2F5
:101F10008091A5039091A60360E00E949A088093A7
:101F2000E80180E00E945C08882309F404C28091E3
:101F3000A7039091A80360E00E949A088093E901AA
:101F400080E00E945C0842E0942E882341F080915A
:101F5000A9039091AA0360E00E949A08982E90929B
:101F6000EA0181E00E945C0833E0B32E882359F037
:101F70006091C2037091C3038091C0039091C1032B
:101F80000E947C08B82EB092DD0181E00E945C08BE
:101F9000882309F4D2C16091BE037091BF03809180
:101FA000BC039091BD030E947C088093DE0181E018
:101FB0000E945C0823E0522E882341F08091BA03EE
:101FC0009091BB0361E00E949A08582E5092DF0165
:101FD00081E00E945C0866246394882341F080912C
:101FE000B8039091B90361E00E949A08682E60924C
:101FF000E00181E00E945C0893E0792E882341F0A3
:102000008091B6039091B70361E00E949A08782E00
:102010007092E10181E00E945C08882309F48FC17D
:102020008091B4039091B50361E00E949A08882ED4
:102030008092E2010E94ED052091640130916501DA
:102040004091660150916701621B730B840B950BE5
:10205000683873418105910508F074C180915E0173
:1020600090915F0160E00E949A08482E8093DC0105
:1020700020E040E061E0892D0E944D08C82F809348
:10208000DA0121E040E060E0892D0E944D08982EA1
:102090008093D80120E040E061E08A2D0E944D0845
:1020A0008093D60121E040E060E08A2D0E944D0837
:1020B0008093D40121E041E060E08B2D0E944D0827
:1020C000382E8093D20121E040E060E08B2D0E9409
:1020D0004D08282E8093D00121E040E060E0852D5E
:1020E0000E944D08582E8093CE0121E040E060E030
:1020F000862D0E944D08682E8093CC0121E040E09F
:1021000060E0872D0E944D08782E8093CA0121E05F
:1021100040E060E0882D0E944D08882E8093C80121
:1021200087E10E942704AA24A394892B09F0A12CFB
:10213000A092C60186E10E942704BB24B394892B98
:1021400009F0B12CB092C4013092D3012092D10198
:10215000C1110DC0992009F4F7C060E273E088E670
:1021600091E00E949507C1E0811101C0C0E0C093D9
:10217000DB015092CF017092CB018092C901A092F5
:10218000C701B092C501662009F4E7C068EE73E0AC
:102190008CE691E00E94950791E0811101C090E0EA
:1021A0009093D7019093D50183E0CFEFB12C44E613
:1021B000481204C0C6E6BB24B39448E28090D30121
:1021C000682D85E10E94B40865E0B11062E080915D
:1021D000D101882309F409C16C2F8AE00E94BA0456
:1021E0004C2F6091DB018BE00E94B4084C2F609172
:1021F000CF0184E10E94B4087090C9014C2F672D73
:1022000082E10E94B4084C2F6091D70188E00E94BF
:10221000B4084C2F6091D50189E00E94B408A090C9
:10222000C7014C2F6A2D83E10E94B4089090C5012C
:102230004C2F692D8CE00E94B4084C2F6091D7017F
:1022400085E00E94B4084C2F6091D50186E00E9481
:10225000B4084C2F692D8CE00E94B4084C2F6A2DD5
:1022600083E10E94B408682D80E00E94DE07692D9A
:1022700081E00E94DE076A2D82E00E94DE07609105
:10228000D50183E00E94DE076091D70184E00E94BF
:10229000DE07672D85E00E94DE076091CB0186E0B6
:1022A0000E94DE076B2D87E00E94DE0780910C0103
:1022B000813009F49EC0823009F4AEC00E94ED0561
:1022C0008090C0019090C101A090C201B090C30164
:1022D0002B013C01481859086A087B0828EE421671
:1022E00023E052066104710408F4B6C02091BF01D6
:1022F0006093C0017093C1018093C2019093C301A8
:1023000081E082278093BF016091BF018DE00E9430
:1023100050040115110509F468CD0E94B902882303
:1023200009F461CD0E9400005ECD82E0C9CD83E05A
:10233000E7CD83E0F4CD83E001CE83E036CE83E0C9
:10234000882E76CE80E091CE1092680110926901BD
:1023500010926A0110926B010ACF8091D6018823F6
:1023600079F068EE73E08CE691E00E94950791E0C9
:10237000811101C090E09093D7011092D50114CF44
:102380008091D401882369F01092D70168EE73E040
:102390008CE691E00E94950791E0811103CF90E0D7
:1023A00001CF8091D701811104C08091D50188238C
:1023B00059F068EE73E08CE691E00E949507811178
:1023C00003C01092D701D9CF8091D7018111ECCEF3
:1023D0008091D5018111E8CE10926C0110926D01AF
:1023E00010926E0110926F01DFCE8110F6CE60E088
:1023F000F4CE9091B401809374019093750182E0C2
:102400000E943308909376018093770184E00E94C4
:10241000F207D0930C0152CF0E94ED058090B901D4
:102420009090BA01A090BB01B090BC0168197909E5
:102430008A099B098090B5019090B601A090B701E0
:10244000B090B80186169706A806B90608F036CFF0
:1024500081E080930C0132CF681579058A059B05D0
:1024600008F052CF6093C0017093C1018093C20104
:102470009093C30149CF97FB072E16F4009407D021
:1024800077FD09D00E94A11207FC05D03EF490957B
:1024900081959F4F0895709561957F4F0895A1E2B2
:1024A0001A2EAA1BBB1BFD010DC0AA1FBB1FEE1FCE
:1024B000FF1FA217B307E407F50720F0A21BB30B19
:1024C000E40BF50B661F771F881F991F1A9469F795
:1024D00060957095809590959B01AC01BD01CF01F1
:1024E0000895052E97FB1EF400940E94881257FD54
:1024F00007D00E944F1207FC03D04EF40C948812B0
:1025000050954095309521953F4F4F4F5F4F08951F
:1025100090958095709561957F4F8F4F9F4F08954F
:10252000EE0FFF1F0590F491E02D09940E94B51263
:10253000A59F900DB49F900DA49F800D911D112417
:102540000895AA1BBB1B51E107C0AA1FBB1FA617FA
:10255000B70710F0A61BB70B881F991F5A95A9F74C
:1025600080959095BC01CD010895A29FB001B39FC5
:10257000C001A39F700D811D1124911DB29F700D8C
:0C258000811D1124911D0895F894FFCFD7
:10258C00FFFFFFFF00E10000000000000294079431
:10259C0007940794079407FF00C180810000000096
:1025AC00000000EE024F027C023A03AD028B029F48
:1025BC0002000000005A036C057B037003C1037F0B
:0425CC00039D030068
:00000001FF
