:100000000C94BD000C9418090C94F1080C94CA08C7
:100010000C94A3080C94E5000C94E5000C947C0867
:100020000C94E5000C94E5000C9491050C940006EA
:100030000C94E5000C94E5000C94E5000C94E500AC
:100040000C94E5000C94E5000C94E5000C94E5009C
:100050000C94E5000C94E5000C94E5000C94320837
:100060000C94E5000C94E5000C94E5000C94E5007C
:100070000C94E5000C94E5000C94E5000C94E5006C
:100080000C94E5000C94E5000C94E5000C94E5005C
:100090000C94E5000C94E5000C943F090C94E500E9
:1000A0000C94E5000C94E5000C94E50000000000C1
:1000B000250028002B002E00310000000000240045
:1000C00027002A002D003000040404040403040562
:1000D00002020202040302020202060606060606E5
:1000E00004040202020404040802011040804010CB
:1000F000204080408008020401804020100201104E
:10010000801020404020080B000202020000090479
:100110000000010202000005240010010524010175
:1001200001042402060524060001070581031000CE
:100130004009040100020A00000007050202400015
:1001400000070583024000000403090412010002B5
:10015000EF02014041233780000101020301417297
:100160006475696E6F204C4C430041726475696E12
:100170006F204D6963726F00490D11241FBECFEFD0
:10018000DAE0DEBFCDBF11E0A0E0B1E0E2EDFBE1DF
:1001900002C005900D92A439B107D9F723E0A4E974
:1001A000B1E001C01D92A630B207E1F710E0CDEB3F
:1001B000D0E004C02197FE010E94D20DCC3BD107B4
:1001C000C9F70E94BE090C94E70D0C940000E82FBB
:1001D000F0E0EE0FFF1FE15FFE4F7183608382301E
:1001E000D9F028F4882341F0813071F008958330EC
:1001F000D9F0843009F10895809169008C7F816085
:1002000080936900E89A089580916900837F8460F3
:1002100080936900E99A0895809169008F7C8061DC
:1002200080936900EA9A0895809169008F738064D1
:1002300080936900EB9A089580916A008F7C8061B9
:1002400080936A00EE9A0895FC018091B50288239C
:1002500011F13FB7F89482E08093E9002091F20019
:10026000822F90E01816190614F481E090E088239C
:1002700039F0289A44E64093B4024091F10040835B
:10028000222339F02091F200211103C02BE62093A4
:10029000E8003FBF08958FEF9FEF08952FB7F894C0
:1002A00083E08093E9009091E800892F807295FFA8
:1002B00004C09091F20080E4891B2FBF08958091C3
:1002C000AC0281110DC082E08093A80284E080938B
:1002D000A9021092AB021092AA0281E08093AC02B4
:1002E00088EA92E008954091AC015091AD012091CF
:1002F000AA013091AB0142175307B4F49091E80082
:100300009570E1F39091E80092FD19C08093F1009F
:100310008091AC019091AD0101968F739927892B43
:1003200019F48EEF8093E8008091AC019091AD01BB
:1003300001969093AD018093AC0181E0089580E037
:100340000895EF92FF920F931F93CF93DF93F82EB0
:10035000192FE62E042F81E0860F880F0E9473016B
:1003600083E00E947301CF2DD12FEC0EFD2EF11CE6
:10037000CE15DF05B9F007FF13C0FE0184910E947E
:100380007301182F80E00E9473018123219681114F
:10039000EFCFDF91CF911F910F91FF90EF900895D4
:1003A0008881EDCF81E0F5CFDF92EF92FF920F933E
:1003B0001F93CF93DF93D82E8A01EB017B01E40ECC
:1003C000F51ECE15DF0559F0D7FE12C0FE0184914F
:1003D0000E94730121968111F4CF0FEF1FEFC80126
:1003E000DF91CF911F910F91FF90EF90DF900895D3
:1003F0008881EECF0F931F93CF93DF931F92CDB7DA
:10040000DEB782E0898342E450E066E071E080E894
:100410000E94D4010E945F01DC0112960D911C9193
:100420000115110589F0D801ED91FC910280F3814D
:10043000E02DBE016F5F7F4FC801099597FD04C095
:10044000F80100851185ECCF89810F90DF91CF9164
:100450001F910F910895615030F02091F100FC013F
:1004600020830196F8CF289A84E68093B4020895F9
:10047000CF93DF931F92CDB7DEB76983DC01ED9197
:10048000FC910280F381E02D41E050E0BE016F5FFE
:100490007F4F09950F90DF91CF91089583E080936E
:1004A000E9008091F200882319F08AE38093E80044
:1004B00008950E944E0190E00895CF93DF931F921C
:1004C000CDB7DEB7FC018485958597FD08C02FEF79
:1004D0003FEF358724870F90DF91CF910895CE01AC
:1004E00001960E942401019719F4898190E0F3CFCD
:1004F0008FEF9FEFF0CF0F931F93CF93DF931F9258
:10050000CDB7DEB78C01FC018485958597FF0BC0C4
:10051000CE0101960E942401019771F4898190E037
:10052000F80195878487F801848595850F90DF9180
:10053000CF911F910F9108958FEF9FEFF1CFFC01A5
:100540008485958597FD0BC09FB7F89482E08093D2
:10055000E9008091F2009FBF90E0019608959FB757
:10056000F89482E08093E9008091F2009FBF90E0D0
:100570000895CF93DF9390E0FC01E951FF4F249160
:1005800088539F4FFC0184918823D1F090E0880F1D
:10059000991FFC01E654FF4FA591B491FC01E4556D
:1005A000FF4FC591D491623071F49FB7F8943C919C
:1005B000822F809583238C93E8812E2B28839FBFE5
:1005C000DF91CF9108958FB7F894EC912E2B2C9357
:1005D0008FBFF6CF3FB7F8948091A6019091A70105
:1005E000A091A801B091A90126B5A89B05C02F3FF5
:1005F00019F00196A11DB11D3FBFBA2FA92F982F49
:100600008827BC01CD01620F711D811D911D42E043
:10061000660F771F881F991F4A95D1F70895CF92CB
:10062000DF92EF92FF920E94EA026B017C010E942E
:10063000EA026C197D098E099F09683E73408105A5
:100640009105A8F3FF90EF90DF90CF9008958F92DF
:100650009F92AF92BF92CF92DF92EF92FF920F9351
:100660001F93CF93DF936C017B018A0180910E0170
:10067000882309F458C08091B502882309F453C037
:100680008091B00180FF05C08091E000826080937E
:10069000E000E801B12C8AEFA82E93E0892E2AE32E
:1006A000922E209711F4BB20B9F10E944E018111C6
:1006B00006C0AA94AA20B9F10E940F03F2CF8C17AA
:1006C0001D0611F00CF08C2F9FB7F8948092E90072
:1006D0002091E80025FD02C09FBFE3CF282F30E026
:1006E000C21BD30BF701815020F041914093F100E0
:1006F000FACFE20EF31EBB2021F09092E800B12C5D
:10070000EBCF8091E80085FDE7CF9092E800BB2415
:10071000B394209709F3F3CF5D9A84E68093AF01F9
:10072000101611063CF081E090E0F601938382837D
:1007300010E000E0C801DF91CF911F910F91FF9071
:10074000EF90DF90CF90BF90AF909F908F900895E3
:100750002FB7F8946091A2017091A3018091A40138
:100760009091A5012FBF08950F931F93CF93DF930F
:10077000EC018B010E94A80324E630E040E050E049
:100780000E94720D6233710581059105C8F08A815E
:10079000811116C028813981C801821B930B64E145
:1007A00070E00E945E0D620F731F7983688381E0A1
:1007B0008A8388819981DF91CF911F910F9108954C
:1007C0000E94A80324E630E040E050E00E94720D51
:1007D000623371058105910560F78A81882349F3A9
:1007E0001A82E7CFCF93DF93CDB7DEB728970FB646
:1007F000F894DEBF0FBECDBF0E94EA0269837A8300
:100800008B839C8389819A81AB81BC8140919D01BE
:1008100050919E0160919F017091A001841B950BE6
:10082000A60BB70B8D839E83AF83B88789819A818E
:10083000AB81BC8180939D0190939E01A0939F0109
:10084000B093A0018D819E81AF81B8858C3B924091
:10085000A105B10548F48D819E81AF81B8858939A4
:100860009840A105B105A8F58D819E81AF81B8851D
:1008700083359340A105B10548F08D819E81AF81FC
:10088000B885843D9340A105B10508F18091000130
:100890008830F8F48D819E81AF81B885E0910001A8
:1008A000F0E0EE0FFF1FE956FD4F918380838091AA
:1008B00000018F5F809300010E94A80360936C0287
:1008C00070936D0280936E0290936F0202C010923B
:1008D000000128960FB6F894DEBF0FBECDBFDF91A2
:1008E000CF910895CF93DF93CDB7DEB728970FB69A
:1008F000F894DEBF0FBECDBF0E94EA0269837A83FF
:100900008B839C8389819A81AB81BC8140919D01BD
:1009100050919E0160919F017091A001841B950BE5
:10092000A60BB70B8D839E83AF83B88789819A818D
:10093000AB81BC8180939D0190939E01A0939F0108
:10094000B093A0018D819E81AF81B8858C3B924090
:10095000A105B10548F48D819E81AF81B8858939A3
:100960009840A105B105A8F58D819E81AF81B8851C
:1009700083359340A105B10548F08D819E81AF81FB
:10098000B885843D9340A105B10508F1809101012E
:100990008830F8F48D819E81AF81B885E0910101A6
:1009A000F0E0EE0FFF1FE957FD4F918380838091A8
:1009B00001018F5F809301010E94A8036093700280
:1009C00070937102809372029093730202C010922E
:1009D000010128960FB6F894DEBF0FBECDBFDF91A0
:1009E000CF91089508959C0193E081E0662311F072
:1009F00091E083E0A9014E5E5240453F514060F0D6
:100A0000273D86E0380728F02B3C384020F4892F1A
:100A1000089582E0089580E00895FC01019000208F
:100A2000E9F73197AF01481B590BBC0186EB92E007
:100A30000C9427038F929F92AF92BF920F931F93B4
:100A4000CF93DF93CDB7DEB7A1970FB6F894DEBF93
:100A50000FBECDBF19A2423008F44AE08E010F5DEF
:100A60001F4F842E912CB12CA12CA50194010E9422
:100A7000720DE62FB901CA01EA30F4F4E05DD80145
:100A8000EE938D01232B242B252B79F790E080E02A
:100A9000109719F0CD010E940D05A1960FB6F8949C
:100AA000DEBF0FBECDBFDF91CF911F910F91BF90E1
:100AB000AF909F908F900895E95CE1CFCF93DF9343
:100AC0000E940D05EC0182E391E00E940D058C0F60
:100AD0009D1FDF91CF910895CF93DF93BC0190E0EC
:100AE00080E04AE00E941A05EC0182E391E00E9456
:100AF0000D058C0F9D1FDF91CF910895CF93DF934C
:100B0000682F70E090E080E04AE00E941A05EC0156
:100B100082E391E00E940D058C0F9D1FDF91CF9124
:100B200008951F920F920FB60F9211248F939F93E7
:100B30008091E1009091E100937F9093E10083FF29
:100B40000FC01092E90091E09093EB001092EC003E
:100B500092E39093ED001092B50298E09093F0002C
:100B600082FF22C093E09093E9009091F2009923D4
:100B700019F09AE39093E8009091AF01992341F026
:100B80009091AF0191509093AF01911101C05D9888
:100B90009091B402992341F09091B40291509093B6
:100BA000B402911101C0289884FF18C08091E2001E
:100BB0008E7E81608093E2008091E1008F7E809341
:100BC000E1008091B0018E7E80618093B0019F91A1
:100BD0008F910F900FBE0F901F90189580FFF7CF49
:100BE0008091E2008E7E80618093E2008091E1003E
:100BF0008E7E8093E1008091B0018E7E8160E5CF92
:100C00001F920F920FB60F921124CF92DF92EF92A4
:100C1000FF920F931F932F933F934F935F936F9385
:100C20007F938F939F93AF93BF93EF93FF93CF9354
:100C3000DF93CDB7DEB76C97DEBFCDBF1092E90072
:100C40008091E80083FF25C068E0CE0145960E94B0
:100C50002B0282EF8093E8008D8987FF39C0909145
:100C6000E80090FFFCCF982F907609F034C19E8960
:100C70004F89588D2F89F88C911131C0803861F5DA
:100C80008091B1018093F1001092F1008EEF80937A
:100C9000E8006C960FB6F894DEBF0FBECDBFDF91B3
:100CA000CF91FF91EF91BF91AF919F918F917F91E4
:100CB0006F915F914F913F912F911F910F91FF90F5
:100CC000EF90DF90CF900F900FBE0F901F90189570
:100CD0009EEF9093E800C7CF1092F100D5CF9130EE
:100CE00059F48111D3CF4130510581F68091B10182
:100CF0008D7F8093B101CACF933049F48111C6CF63
:100D00004130510519F68091B1018260F2CF9530E2
:100D100041F48091E80080FFFCCF20682093E3003D
:100D2000B5CF963009F0A9C00B8D1C8D22E0109232
:100D3000E9001092AD011092AC01F2122EC0109297
:100D4000AB011092AA010E94FA011F8299E09983D7
:100D5000FA8291E09E8390EA98879AEF9987209192
:100D6000AC013091AD01275F3F4F3C832B838D83D6
:100D70001092E9001092AD011092AC011093AB01FA
:100D80000093AA0149E050E0BE016F5F7F4F80E011
:100D90000E94D4010E94FA0179CF1093AB01009315
:100DA000AA010E945F01DC0112960D911C910115B0
:100DB000110509F451C1D801ED91FC910480F58130
:100DC000E02DBE016B5E7F4FC8010995009709F0C9
:100DD0003EC1F80100851185EACFF3E0FF120EC095
:100DE0008F89882309F440C0823061F440E86DE0C7
:100DF0008AE691E00E94A101811148CF81E28093AF
:100E0000EB0047CF813029F440E86BE08EE591E0BC
:100E1000F1CF833099F70E945F01DC011296ED90CB
:100E2000FC908E010F5F1F4F6801E114F10479F00F
:100E3000D701ED91FC910680F781E02DB801C70143
:100E40000995080F111DF701E084F184EECFD80158
:100E50001C92F60101900020E9F73197BF016C194F
:100E60007D0940E0C601C6CF68E471E0FB01449112
:100E700050E080E80E94D40109CF973009F4BECF3A
:100E8000983021F481E08093F10000CF993009F08F
:100E9000FDCE837009F0B2CFECE2F1E081E031E009
:100EA00096E32191222371F08093E9003093EB00C7
:100EB000DF0111972C912093EC009093ED008F5F50
:100EC000873079F78EE78093EA001092EA008F89E5
:100ED0008093B502DBCE8B8D9C8D1092E900109231
:100EE000AD011092AC019093AB018093AA01898D62
:100EF000811192C08E899D89913A49F4813209F01D
:100F00007DCF47E050E067E071E080E0B3CF913201
:100F100009F074CF833269F48F89988DB0E0A0E036
:100F20008093030190930401A0930501B0930601FF
:100F3000ADCE803269F48091E80082FFFCCF67E09B
:100F400087E091E00E942B028BEF8093E8009ECE19
:100F5000823209F09BCE8F8980930E01EEEFFFE77E
:100F6000859194918B3F9C4D51F1E0E0F8E08091A8
:100F7000070190910801A0910901B0910A01803BFD
:100F80009440A105B105F1F480910E0180FD1AC0D5
:100F9000EE3F8AE0F80789F587E797E7918380833A
:100FA000809160008093AE0188E19BE00FB6F894D9
:100FB000A895809360000FBE9093600067CEEEEF1F
:100FC000FAE0D5CF808191818737974709F05ECECF
:100FD000A895809160008861809360008091AE0147
:100FE00080936000EE3F2AE0F20789F08091FE0ACC
:100FF0009091FF0A9183808349CE808191818737C8
:10100000980751F29093FF0A8093FE0AC5CF109281
:10101000FF0A1092FE0A3ACE0E945F01DC0112968E
:101020000D911C910115110509F4E8CED801ED913F
:10103000FC910190F081E02DBE016B5E7F4FC801F5
:101040000995811123CEF80100851185EBCF181683
:1010500019060CF41BCED2CEF1E0FF12BECE6CE42A
:1010600071E004CF1F920F920FB60F9211242F93AD
:101070003F938F939F93AF93BF938091A2019091E1
:10108000A301A091A401B091A5013091A10123E099
:10109000230F2D3758F50196A11DB11D2093A101F5
:1010A0008093A2019093A301A093A401B093A50102
:1010B0008091A6019091A701A091A801B091A901EA
:1010C0000196A11DB11D8093A6019093A701A09345
:1010D000A801B093A901BF91AF919F918F913F91CA
:1010E0002F910F900FBE0F901F90189526E8230F99
:1010F0000296A11DB11DD2CF1F920F920FB60F9273
:1011000011242F933F934F935F936F937F938F930C
:101110009F93AF93BF93EF93FF93E0911701F091EB
:1011200018010995FF91EF91BF91AF919F918F9118
:101130007F916F915F914F913F912F910F900FBED3
:101140000F901F9018951F920F920FB60F921124B7
:101150002F933F934F935F936F937F938F939F93BF
:10116000AF93BF93EF93FF93E0911501F0911601B8
:101170000995FF91EF91BF91AF919F918F917F91D1
:101180006F915F914F913F912F910F900FBE0F90F4
:101190001F9018951F920F920FB60F9211242F9344
:1011A0003F934F935F936F937F938F939F93AF93EF
:1011B000BF93EF93FF93E0911301F0911401099510
:1011C000FF91EF91BF91AF919F918F917F916F911F
:1011D0005F914F913F912F910F900FBE0F901F90F5
:1011E00018951F920F920FB60F9211242F933F93D1
:1011F0004F935F936F937F938F939F93AF93BF931F
:10120000EF93FF93E0911101F09112010995FF9185
:10121000EF91BF91AF919F918F917F916F915F916E
:101220004F913F912F910F900FBE0F901F901895E7
:101230001F920F920FB60F9211242F933F934F934B
:101240005F936F937F938F939F93AF93BF93EF932E
:10125000FF93E0910F01F09110010995FF91EF913B
:10126000BF91AF919F918F917F916F915F914F91BE
:101270003F912F910F900FBE0F901F9018951F92C6
:101280000F920FB60F9211242F933F934F936F93AA
:101290007F938F939F93AF93BF93EF93FF9380912F
:1012A00002018F5F80930201811138C0E2EBF1E00F
:1012B00047818581411103C090859923E9F090E031
:1012C0003681232F30E0BC01621B730B1616170604
:1012D0004CF4442389F0240F311D2817390764F496
:1012E000C9010AC0672B41F04085442329F0241B23
:1012F000310982179307A4F386838681882349F0F6
:101300009181A281B3818481911131C09C91892BFB
:101310008C93399682E0E636F80751F6E2EBF1E07D
:10132000808187FD0FC080910201968198130AC0C9
:10133000A281B3818481918191111DC09C9180957E
:1013400089238C93399682E0E636F80749F7FF91B6
:10135000EF91BF91AF919F918F917F916F914F913D
:101360003F912F910F900FBE0F901F9018959C9159
:1013700080958923CDCF9C91892BE3CF789484B538
:10138000826084BD84B5816084BD85B5826085BD81
:1013900085B5816085BD80916E00816080936E000F
:1013A0001092810080918100826080938100809101
:1013B00081008160809381008091800081608093B2
:1013C00080008091910082608093910080919100D3
:1013D0008160809391008091900081608093900063
:1013E0008091C10084608093C1008091C1008260BF
:1013F0008093C1008091C10081608093C100809181
:10140000C30081608093C3008091C000826080939C
:10141000C0008091C20081608093C20080917A00F8
:10142000846080937A0080917A00826080937A0051
:1014300080917A00816080937A0080917A00806840
:1014400080937A001092B5021092B1011092B0010F
:101450008091D70081608093D70080EA8093D80084
:1014600089B5806189BD89B5826089BD09B400FEF6
:10147000FDCF0E940F038091D8008F7C8061809304
:10148000D8008091E000807F8093E0008091E100AF
:101490008E7E8093E1008DE08093E200559A209A41
:1014A0005D9828981092C00084E08093C10010924B
:1014B000C2001092C3001092C4001092D10082E8C2
:1014C0008093D10080E480937200E2EBF1E086E645
:1014D00092E02FEF208311821382128217821086EE
:1014E00039968E179F07B1F762E082E00E94B90239
:1014F00062E083E00E94B90262E087E00E94B902E4
:1015000062E086E10E94B90262E087E10E94B902CE
:1015100061E082E10E94B90261E08AE00E94B902C2
:1015200061E08BE00E94B90261E083E10E94B902B0
:1015300061E088E00E94B90261E089E00E94B9029E
:1015400061E085E00E94B90261E086E00E94B90294
:1015500061E084E10E94B90261E08CE00E94B9027E
:1015600061E085E10E94B90262EF73E081E00E94D0
:10157000E70062E774E080E00E94E7008FEF9FEFF2
:101580009093C3028093C20288E9882E83E0982E4C
:10159000A12CB12C98EEC92E93E0D92EE12CF12C80
:1015A000C0E0D0E00E94A80300916C0210916D028F
:1015B00020916E0230916F02601B710B820B930BB6
:1015C000603D77408105910508F443C1109298026F
:1015D0001092970210929A021092990210929C0215
:1015E00010929B0210929E0210929D021092A002F5
:1015F00010929F021092A2021092A1021092A402D5
:101600001092A3021092A6021092A5020E94A803B3
:101610000091700210917102209172023091730258
:10162000601B710B820B930B603D77408105910528
:1016300008F49CC1109288021092870210928A02CC
:101640001092890210928C0210928B0210928E02DC
:1016500010928D021092900210928F0210929202BC
:10166000109291021092940210929302109296029C
:10167000109295024090810230907D021091790283
:10168000009177027090760260907502509074021B
:101690000E94A803A70196010E94720D643F714049
:1016A0008105910508F4CDC1809186028111C9C1DF
:1016B00085E391E00E945E05809182029091830211
:1016C0000E946C0580918402909185020E946C05B5
:1016D00080917C020E947E05832D0E947E05809170
:1016E0007E020E947E0580917F020E947E0580918D
:1016F00080020E947E05842D0E947E0589E491E08F
:101700000E945E058BE591E00E945E05852D0E949A
:101710007E05862D0E947E05872D0E947E05802FE6
:101720000E947E05809178020E947E05812F0E9492
:101730007E0589E491E00E945E0581E08093860247
:101740000E94A803A70196010E94720D643F714098
:101750008105910508F489C18091A702811185C195
:101760008FE691E00E945E05809197029091980229
:101770000E946C058091990290919A020E946C05DA
:1017800080919B0290919C020E946C0580919D0229
:1017900090919E020E946C0580919F029091A00200
:1017A0000E946C058091A1029091A2020E946C059A
:1017B0008091A3029091A4020E946C058091A502E1
:1017C0009091A6020E946C0589E491E00E945E055A
:1017D00081E891E00E945E058091870290918802E5
:1017E0000E946C058091890290918A020E946C058A
:1017F00080918B0290918C020E946C0580918D02E9
:1018000090918E020E946C0580918F0290919002BF
:101810000E946C0580919102909192020E946C0549
:1018200080919302909194020E946C0580919502A0
:10183000909196020E946C0589E491E00E945E05F9
:1018400081E08093A702209709F4ACCE0E940000AB
:10185000A9CE609197027091980286E692E00E946C
:10186000B4039C01990F440B550B24523440410999
:101870005109AFEFB3E00E94B30DA50194010E949E
:10188000940D57FF03C020E030E0A901211564E06A
:1018900036074105510524F02FEF33E040E050E0DA
:1018A00030938302209382026091990270919A0290
:1018B00089E692E00E94B4039C01990F440B550BFA
:1018C0002452344041095109AFEFB3E00E94B30DF7
:1018D000A50194010E94940D57FF03C020E030E061
:1018E000A901211584E038074105510524F02FEFA7
:1018F00033E040E050E030938502209384028091F1
:101900009B0290919C0260E00E94F30480937C0211
:1019100080919D0290919E0260E00E94F30480936A
:101920007D0280919F029091A00260E00E94F304EA
:1019300080937E028091A1029091A20260E00E94B9
:10194000F30480937F028091A3029091A40260E04F
:101950000E94F304809380028091A5029091A602D8
:1019600060E00E94F3048093810250CE8091870250
:101970009091880261E00E94F30480937402809148
:10198000890290918A0261E00E94F30480937502BB
:1019900080918B0290918C0261E00E94F30480930D
:1019A000760280918D0290918E0261E00E94F30494
:1019B00080937702809191029091920220918F0200
:1019C00030919002A9014E5E5240453F514068F16E
:1019D000AC014E5E5240453F514048F1213D3740F9
:1019E00040F5813D974028F582E080937802809110
:1019F0009502909196022091930230919402A90150
:101A00004E5E5240453F5140B0F0AC014E5E5240F8
:101A1000453F514090F0213D374088F4813D97404B
:101A200070F482E08093790225CE81E0DECF83E0FE
:101A3000DCCF80E0DACF81E0F5CF83E0F3CF80E048
:101A4000F1CF0E94A803A70196010E94720D643F86
:101A500071408105910508F073CE8091860288233C
:101A600009F46ECE109286026BCE0E94A803A701E5
:101A700096010E94720D643F71408105910508F046
:101A8000E2CE8091A702882309F4DDCE1092A7024E
:101A9000DACEE6EBF2E01382128288EE93E0A0E069
:101AA000B0E084839583A683B7838DE191E0918331
:101AB00080838FEF9FEF95878487089597FB072E8C
:101AC00016F4009407D077FD09D00E94BE0D07FCE4
:101AD00005D03EF4909581959F4F0895709561953E
:101AE0007F4F0895A1E21A2EAA1BBB1BFD010DC05A
:101AF000AA1FBB1FEE1FFF1FA217B307E407F507BE
:101B000020F0A21BB30BE40BF50B661F771F881F99
:101B1000991F1A9469F760957095809590959B012F
:101B2000AC01BD01CF010895052E97FB1EF4009472
:101B30000E94AB0D57FD07D00E94720D07FC03D029
:101B40004EF40C94AB0D50954095309521953F4F38
:101B50004F4F5F4F089590958095709561957F4F99
:101B60008F4F9F4F08950E94D80DA59F900DB49F51
:101B7000900DA49F800D911D11240895AA1BBB1BDD
:101B800051E107C0AA1FBB1FA617B70710F0A61B7D
:101B9000B70B881F991F5A95A9F780959095BC019E
:101BA000CD010895EE0FFF1F0590F491E02D0994EB
:101BB000A29FB001B39FC001A39F700D811D11248E
:101BC000911DB29F700D811D1124911D0895F894EF
:021BD000FFCF45
:101BD2000808FFFFFFFFFF00E1000000000000F225
:101BE20004F204F204F204F20400000000380227B6
:101BF2000359024E029F025D027B0200C1808100F6
:101C020000000D0A002D2D4368616E6E656C7377BE
:101C12006974636820312D2D002D2D2D2D2D2D2D34
:101C2200456E642D2D2D2D2D2D2D002D2D436861FA
:101C32006E6E656C73776974636820322D2D002D8A
:101C42002D4D756C746973776974636820312D2D1D
:101C5200002D2D4D756C7469737769746368203239
:041C62002D2D000024
:00000001FF
